{
  "contractName": "CustomNFT",
  "abi": [
    {
      "inputs": [
        {
          "internalType": "string",
          "name": "_name",
          "type": "string"
        },
        {
          "internalType": "string",
          "name": "_symbol",
          "type": "string"
        }
      ],
      "stateMutability": "nonpayable",
      "type": "constructor"
    },
    {
      "anonymous": false,
      "inputs": [
        {
          "indexed": true,
          "internalType": "address",
          "name": "owner",
          "type": "address"
        },
        {
          "indexed": true,
          "internalType": "address",
          "name": "approved",
          "type": "address"
        },
        {
          "indexed": true,
          "internalType": "uint256",
          "name": "tokenId",
          "type": "uint256"
        }
      ],
      "name": "Approval",
      "type": "event"
    },
    {
      "anonymous": false,
      "inputs": [
        {
          "indexed": true,
          "internalType": "address",
          "name": "owner",
          "type": "address"
        },
        {
          "indexed": true,
          "internalType": "address",
          "name": "operator",
          "type": "address"
        },
        {
          "indexed": false,
          "internalType": "bool",
          "name": "approved",
          "type": "bool"
        }
      ],
      "name": "ApprovalForAll",
      "type": "event"
    },
    {
      "anonymous": false,
      "inputs": [
        {
          "indexed": false,
          "internalType": "string",
          "name": "message",
          "type": "string"
        }
      ],
      "name": "LogMessage",
      "type": "event"
    },
    {
      "anonymous": false,
      "inputs": [
        {
          "indexed": true,
          "internalType": "address",
          "name": "previousOwner",
          "type": "address"
        },
        {
          "indexed": true,
          "internalType": "address",
          "name": "newOwner",
          "type": "address"
        }
      ],
      "name": "OwnershipTransferred",
      "type": "event"
    },
    {
      "anonymous": false,
      "inputs": [
        {
          "indexed": true,
          "internalType": "address",
          "name": "from",
          "type": "address"
        },
        {
          "indexed": true,
          "internalType": "address",
          "name": "to",
          "type": "address"
        },
        {
          "indexed": true,
          "internalType": "uint256",
          "name": "tokenId",
          "type": "uint256"
        }
      ],
      "name": "Transfer",
      "type": "event"
    },
    {
      "inputs": [
        {
          "internalType": "address",
          "name": "to",
          "type": "address"
        },
        {
          "internalType": "uint256",
          "name": "tokenId",
          "type": "uint256"
        }
      ],
      "name": "approve",
      "outputs": [],
      "stateMutability": "nonpayable",
      "type": "function"
    },
    {
      "inputs": [
        {
          "internalType": "address",
          "name": "owner",
          "type": "address"
        }
      ],
      "name": "balanceOf",
      "outputs": [
        {
          "internalType": "uint256",
          "name": "",
          "type": "uint256"
        }
      ],
      "stateMutability": "view",
      "type": "function",
      "constant": true
    },
    {
      "inputs": [
        {
          "internalType": "uint256",
          "name": "tokenId",
          "type": "uint256"
        }
      ],
      "name": "getApproved",
      "outputs": [
        {
          "internalType": "address",
          "name": "",
          "type": "address"
        }
      ],
      "stateMutability": "view",
      "type": "function",
      "constant": true
    },
    {
      "inputs": [
        {
          "internalType": "address",
          "name": "owner",
          "type": "address"
        },
        {
          "internalType": "address",
          "name": "operator",
          "type": "address"
        }
      ],
      "name": "isApprovedForAll",
      "outputs": [
        {
          "internalType": "bool",
          "name": "",
          "type": "bool"
        }
      ],
      "stateMutability": "view",
      "type": "function",
      "constant": true
    },
    {
      "inputs": [],
      "name": "name",
      "outputs": [
        {
          "internalType": "string",
          "name": "",
          "type": "string"
        }
      ],
      "stateMutability": "view",
      "type": "function",
      "constant": true
    },
    {
      "inputs": [],
      "name": "owner",
      "outputs": [
        {
          "internalType": "address",
          "name": "",
          "type": "address"
        }
      ],
      "stateMutability": "view",
      "type": "function",
      "constant": true
    },
    {
      "inputs": [
        {
          "internalType": "uint256",
          "name": "tokenId",
          "type": "uint256"
        }
      ],
      "name": "ownerOf",
      "outputs": [
        {
          "internalType": "address",
          "name": "",
          "type": "address"
        }
      ],
      "stateMutability": "view",
      "type": "function",
      "constant": true
    },
    {
      "inputs": [],
      "name": "renounceOwnership",
      "outputs": [],
      "stateMutability": "nonpayable",
      "type": "function"
    },
    {
      "inputs": [
        {
          "internalType": "address",
          "name": "from",
          "type": "address"
        },
        {
          "internalType": "address",
          "name": "to",
          "type": "address"
        },
        {
          "internalType": "uint256",
          "name": "tokenId",
          "type": "uint256"
        }
      ],
      "name": "safeTransferFrom",
      "outputs": [],
      "stateMutability": "nonpayable",
      "type": "function"
    },
    {
      "inputs": [
        {
          "internalType": "address",
          "name": "from",
          "type": "address"
        },
        {
          "internalType": "address",
          "name": "to",
          "type": "address"
        },
        {
          "internalType": "uint256",
          "name": "tokenId",
          "type": "uint256"
        },
        {
          "internalType": "bytes",
          "name": "data",
          "type": "bytes"
        }
      ],
      "name": "safeTransferFrom",
      "outputs": [],
      "stateMutability": "nonpayable",
      "type": "function"
    },
    {
      "inputs": [
        {
          "internalType": "address",
          "name": "operator",
          "type": "address"
        },
        {
          "internalType": "bool",
          "name": "approved",
          "type": "bool"
        }
      ],
      "name": "setApprovalForAll",
      "outputs": [],
      "stateMutability": "nonpayable",
      "type": "function"
    },
    {
      "inputs": [
        {
          "internalType": "bytes4",
          "name": "interfaceId",
          "type": "bytes4"
        }
      ],
      "name": "supportsInterface",
      "outputs": [
        {
          "internalType": "bool",
          "name": "",
          "type": "bool"
        }
      ],
      "stateMutability": "view",
      "type": "function",
      "constant": true
    },
    {
      "inputs": [],
      "name": "symbol",
      "outputs": [
        {
          "internalType": "string",
          "name": "",
          "type": "string"
        }
      ],
      "stateMutability": "view",
      "type": "function",
      "constant": true
    },
    {
      "inputs": [
        {
          "internalType": "uint256",
          "name": "tokenId",
          "type": "uint256"
        }
      ],
      "name": "tokenURI",
      "outputs": [
        {
          "internalType": "string",
          "name": "",
          "type": "string"
        }
      ],
      "stateMutability": "view",
      "type": "function",
      "constant": true
    },
    {
      "inputs": [
        {
          "internalType": "address",
          "name": "from",
          "type": "address"
        },
        {
          "internalType": "address",
          "name": "to",
          "type": "address"
        },
        {
          "internalType": "uint256",
          "name": "tokenId",
          "type": "uint256"
        }
      ],
      "name": "transferFrom",
      "outputs": [],
      "stateMutability": "nonpayable",
      "type": "function"
    },
    {
      "inputs": [
        {
          "internalType": "address",
          "name": "newOwner",
          "type": "address"
        }
      ],
      "name": "transferOwnership",
      "outputs": [],
      "stateMutability": "nonpayable",
      "type": "function"
    },
    {
      "inputs": [
        {
          "internalType": "address",
          "name": "wallet",
          "type": "address"
        },
        {
          "internalType": "string",
          "name": "imageUrl",
          "type": "string"
        },
        {
          "internalType": "uint256",
          "name": "nftType",
          "type": "uint256"
        },
        {
          "internalType": "uint256",
          "name": "value",
          "type": "uint256"
        }
      ],
      "name": "issueNFT",
      "outputs": [],
      "stateMutability": "nonpayable",
      "type": "function"
    },
    {
      "inputs": [
        {
          "internalType": "address",
          "name": "wallet",
          "type": "address"
        }
      ],
      "name": "getNFTsByWallet",
      "outputs": [
        {
          "components": [
            {
              "internalType": "string",
              "name": "imageUrl",
              "type": "string"
            },
            {
              "internalType": "uint256",
              "name": "nftType",
              "type": "uint256"
            },
            {
              "internalType": "uint256",
              "name": "value",
              "type": "uint256"
            },
            {
              "internalType": "string",
              "name": "sellerId",
              "type": "string"
            },
            {
              "internalType": "uint256",
              "name": "expiryTimestamp",
              "type": "uint256"
            }
          ],
          "internalType": "struct CustomNFT.NFTData[]",
          "name": "",
          "type": "tuple[]"
        }
      ],
      "stateMutability": "view",
      "type": "function",
      "constant": true
    },
    {
      "inputs": [
        {
          "internalType": "address",
          "name": "wallet",
          "type": "address"
        }
      ],
      "name": "getNFTsByWalletExp",
      "outputs": [
        {
          "components": [
            {
              "internalType": "uint256",
              "name": "tokenId",
              "type": "uint256"
            },
            {
              "internalType": "bool",
              "name": "isExpired",
              "type": "bool"
            }
          ],
          "internalType": "struct CustomNFT.Tuple[]",
          "name": "",
          "type": "tuple[]"
        }
      ],
      "stateMutability": "view",
      "type": "function",
      "constant": true
    },
    {
      "inputs": [
        {
          "internalType": "uint256",
          "name": "tokenId",
          "type": "uint256"
        }
      ],
      "name": "getNFTData",
      "outputs": [
        {
          "components": [
            {
              "internalType": "string",
              "name": "imageUrl",
              "type": "string"
            },
            {
              "internalType": "uint256",
              "name": "nftType",
              "type": "uint256"
            },
            {
              "internalType": "uint256",
              "name": "value",
              "type": "uint256"
            },
            {
              "internalType": "string",
              "name": "sellerId",
              "type": "string"
            },
            {
              "internalType": "uint256",
              "name": "expiryTimestamp",
              "type": "uint256"
            }
          ],
          "internalType": "struct CustomNFT.NFTData",
          "name": "",
          "type": "tuple"
        }
      ],
      "stateMutability": "view",
      "type": "function",
      "constant": true
    },
    {
      "inputs": [
        {
          "internalType": "uint256",
          "name": "tokenId",
          "type": "uint256"
        },
        {
          "internalType": "address",
          "name": "wallet",
          "type": "address"
        }
      ],
      "name": "expireNFT",
      "outputs": [],
      "stateMutability": "nonpayable",
      "type": "function"
    },
    {
      "inputs": [
        {
          "internalType": "uint256",
          "name": "tokenId",
          "type": "uint256"
        }
      ],
      "name": "autoExpireNFT",
      "outputs": [],
      "stateMutability": "nonpayable",
      "type": "function"
    },
    {
      "inputs": [
        {
          "internalType": "uint256",
          "name": "tokenId",
          "type": "uint256"
        }
      ],
      "name": "_isExpired",
      "outputs": [
        {
          "internalType": "bool",
          "name": "",
          "type": "bool"
        }
      ],
      "stateMutability": "view",
      "type": "function",
      "constant": true
    }
  ],
  "bytecode": "0x60806040523480156200001157600080fd5b5060405162003ad238038062003ad2833981810160405281019062000037919062000285565b818181600090805190602001906200005192919062000163565b5080600190805190602001906200006a92919062000163565b5050506200008d620000816200009560201b60201c565b6200009d60201b60201c565b505062000429565b600033905090565b6000600660009054906101000a900473ffffffffffffffffffffffffffffffffffffffff16905081600660006101000a81548173ffffffffffffffffffffffffffffffffffffffff021916908373ffffffffffffffffffffffffffffffffffffffff1602179055508173ffffffffffffffffffffffffffffffffffffffff168173ffffffffffffffffffffffffffffffffffffffff167f8be0079c531659141344cd1fd0a4f28419497f9722a3daafe3b4186f6b6457e060405160405180910390a35050565b828054620001719062000395565b90600052602060002090601f016020900481019282620001955760008555620001e1565b82601f10620001b057805160ff1916838001178555620001e1565b82800160010185558215620001e1579182015b82811115620001e0578251825591602001919060010190620001c3565b5b509050620001f09190620001f4565b5090565b5b808211156200020f576000816000905550600101620001f5565b5090565b60006200022a62000224846200032c565b620002f8565b9050828152602081018484840111156200024357600080fd5b620002508482856200035f565b509392505050565b600082601f8301126200026a57600080fd5b81516200027c84826020860162000213565b91505092915050565b600080604083850312156200029957600080fd5b600083015167ffffffffffffffff811115620002b457600080fd5b620002c28582860162000258565b925050602083015167ffffffffffffffff811115620002e057600080fd5b620002ee8582860162000258565b9150509250929050565b6000604051905081810181811067ffffffffffffffff82111715620003225762000321620003fa565b5b8060405250919050565b600067ffffffffffffffff8211156200034a5762000349620003fa565b5b601f19601f8301169050602081019050919050565b60005b838110156200037f57808201518184015260208101905062000362565b838111156200038f576000848401525b50505050565b60006002820490506001821680620003ae57607f821691505b60208210811415620003c557620003c4620003cb565b5b50919050565b7f4e487b7100000000000000000000000000000000000000000000000000000000600052602260045260246000fd5b7f4e487b7100000000000000000000000000000000000000000000000000000000600052604160045260246000fd5b61369980620004396000396000f3fe608060405234801561001057600080fd5b506004361061014d5760003560e01c80636352211e116100c3578063a22cb4651161007c578063a22cb465146103c2578063b88d4fde146103de578063c87b56dd146103fa578063c99a60bd1461042a578063e985e9c514610446578063f2fde38b146104765761014d565b80636352211e1461030057806370a0823114610330578063715018a6146103605780638da5cb5b1461036a5780639580a9891461038857806395d89b41146103a45761014d565b80630b61addb116101155780630b61addb1461021c5780631403835f1461024c57806323b872dd1461027c57806337afabe01461029857806342842e0e146102c8578063599f7e59146102e45761014d565b806301ffc9a71461015257806306fdde0314610182578063081812fc146101a0578063095ea7b3146101d05780630ad4c4f4146101ec575b600080fd5b61016c600480360381019061016791906126cc565b610492565b6040516101799190613051565b60405180910390f35b61018a610574565b604051610197919061306c565b60405180910390f35b6101ba60048036038101906101b5919061271e565b610606565b6040516101c79190612fa6565b60405180910390f35b6101ea60048036038101906101e59190612690565b61064c565b005b6102066004803603810190610201919061271e565b610764565b604051610213919061324e565b60405180910390f35b610236600480360381019061023191906124aa565b6108d3565b604051610243919061302f565b60405180910390f35b6102666004803603810190610261919061271e565b610ac0565b6040516102739190613051565b60405180910390f35b6102966004803603810190610291919061250f565b610ad3565b005b6102b260048036038101906102ad91906124aa565b610b33565b6040516102bf919061300d565b60405180910390f35b6102e260048036038101906102dd919061250f565b610e5a565b005b6102fe60048036038101906102f9919061271e565b610e7a565b005b61031a6004803603810190610315919061271e565b610f49565b6040516103279190612fa6565b60405180910390f35b61034a600480360381019061034591906124aa565b610fd0565b6040516103579190613270565b60405180910390f35b610368611088565b005b61037261109c565b60405161037f9190612fa6565b60405180910390f35b6103a2600480360381019061039d9190612747565b6110c6565b005b6103ac611164565b6040516103b9919061306c565b60405180910390f35b6103dc60048036038101906103d791906125d9565b6111f6565b005b6103f860048036038101906103f3919061255e565b61120c565b005b610414600480360381019061040f919061271e565b61126e565b604051610421919061306c565b60405180910390f35b610444600480360381019061043f9190612615565b6112d6565b005b610460600480360381019061045b91906124d3565b6112dc565b60405161046d9190613051565b60405180910390f35b610490600480360381019061048b91906124aa565b611370565b005b60007f80ac58cd000000000000000000000000000000000000000000000000000000007bffffffffffffffffffffffffffffffffffffffffffffffffffffffff1916827bffffffffffffffffffffffffffffffffffffffffffffffffffffffff1916148061055d57507f5b5e139f000000000000000000000000000000000000000000000000000000007bffffffffffffffffffffffffffffffffffffffffffffffffffffffff1916827bffffffffffffffffffffffffffffffffffffffffffffffffffffffff1916145b8061056d575061056c826113f4565b5b9050919050565b606060008054610583906134ee565b80601f01602080910402602001604051908101604052809291908181526020018280546105af906134ee565b80156105fc5780601f106105d1576101008083540402835291602001916105fc565b820191906000526020600020905b8154815290600101906020018083116105df57829003601f168201915b5050505050905090565b60006106118261145e565b6004600083815260200190815260200160002060009054906101000a900473ffffffffffffffffffffffffffffffffffffffff169050919050565b600061065782610f49565b90508073ffffffffffffffffffffffffffffffffffffffff168373ffffffffffffffffffffffffffffffffffffffff1614156106c8576040517f08c379a00000000000000000000000000000000000000000000000000000000081526004016106bf906131ee565b60405180910390fd5b8073ffffffffffffffffffffffffffffffffffffffff166106e76114a9565b73ffffffffffffffffffffffffffffffffffffffff1614806107165750610715816107106114a9565b6112dc565b5b610755576040517f08c379a000000000000000000000000000000000000000000000000000000000815260040161074c9061320e565b60405180910390fd5b61075f83836114b1565b505050565b61076c612326565b600960008381526020019081526020016000206040518060a001604052908160008201805461079a906134ee565b80601f01602080910402602001604051908101604052809291908181526020018280546107c6906134ee565b80156108135780601f106107e857610100808354040283529160200191610813565b820191906000526020600020905b8154815290600101906020018083116107f657829003601f168201915b505050505081526020016001820154815260200160028201548152602001600382018054610840906134ee565b80601f016020809104026020016040519081016040528092919081815260200182805461086c906134ee565b80156108b95780601f1061088e576101008083540402835291602001916108b9565b820191906000526020600020905b81548152906001019060200180831161089c57829003601f168201915b505050505081526020016004820154815250509050919050565b60606000600860008473ffffffffffffffffffffffffffffffffffffffff1673ffffffffffffffffffffffffffffffffffffffff16815260200190815260200160002080548060200260200160405190810160405280929190818152602001828054801561096057602002820191906000526020600020905b81548152602001906001019080831161094c575b505050505090506000815167ffffffffffffffff8111156109aa577f4e487b7100000000000000000000000000000000000000000000000000000000600052604160045260246000fd5b6040519080825280602002602001820160405280156109e357816020015b6109d0612355565b8152602001906001900390816109c85790505b50905060005b8251811015610ab5576000838281518110610a2d577f4e487b7100000000000000000000000000000000000000000000000000000000600052603260045260246000fd5b602002602001015190506000610a428261156a565b1590506040518060400160405280838152602001821515815250848481518110610a95577f4e487b7100000000000000000000000000000000000000000000000000000000600052603260045260246000fd5b602002602001018190525050508080610aad90613520565b9150506109e9565b508092505050919050565b6000610acb8261156a565b159050919050565b610ae4610ade6114a9565b826115ab565b610b23576040517f08c379a0000000000000000000000000000000000000000000000000000000008152600401610b1a9061308e565b60405180910390fd5b610b2e838383611640565b505050565b60606000600860008473ffffffffffffffffffffffffffffffffffffffff1673ffffffffffffffffffffffffffffffffffffffff168152602001908152602001600020805480602002602001604051908101604052809291908181526020018280548015610bc057602002820191906000526020600020905b815481526020019060010190808311610bac575b505050505090506000815167ffffffffffffffff811115610c0a577f4e487b7100000000000000000000000000000000000000000000000000000000600052604160045260246000fd5b604051908082528060200260200182016040528015610c4357816020015b610c30612326565b815260200190600190039081610c285790505b50905060005b8251811015610e4f576000838281518110610c8d577f4e487b7100000000000000000000000000000000000000000000000000000000600052603260045260246000fd5b60200260200101519050600960008281526020019081526020016000206040518060a0016040529081600082018054610cc5906134ee565b80601f0160208091040260200160405190810160405280929190818152602001828054610cf1906134ee565b8015610d3e5780601f10610d1357610100808354040283529160200191610d3e565b820191906000526020600020905b815481529060010190602001808311610d2157829003601f168201915b505050505081526020016001820154815260200160028201548152602001600382018054610d6b906134ee565b80601f0160208091040260200160405190810160405280929190818152602001828054610d97906134ee565b8015610de45780601f10610db957610100808354040283529160200191610de4565b820191906000526020600020905b815481529060010190602001808311610dc757829003601f168201915b50505050508152602001600482015481525050838381518110610e30577f4e487b7100000000000000000000000000000000000000000000000000000000600052603260045260246000fd5b6020026020010181905250508080610e4790613520565b915050610c49565b508092505050919050565b610e758383836040518060200160405280600081525061120c565b505050565b610e838161156a565b610ec2576040517f08c379a0000000000000000000000000000000000000000000000000000000008152600401610eb99061310e565b60405180910390fd5b60006009600083815260200190815260200160002060040154905060008111610f20576040517f08c379a0000000000000000000000000000000000000000000000000000000008152600401610f179061322e565b60405180910390fd5b600062278d009050428183610f3591906133e2565b11610f4457610f438361193a565b5b505050565b600080610f5583611a88565b9050600073ffffffffffffffffffffffffffffffffffffffff168173ffffffffffffffffffffffffffffffffffffffff161415610fc7576040517f08c379a0000000000000000000000000000000000000000000000000000000008152600401610fbe906131ce565b60405180910390fd5b80915050919050565b60008073ffffffffffffffffffffffffffffffffffffffff168273ffffffffffffffffffffffffffffffffffffffff161415611041576040517f08c379a00000000000000000000000000000000000000000000000000000000081526004016110389061316e565b60405180910390fd5b600360008373ffffffffffffffffffffffffffffffffffffffff1673ffffffffffffffffffffffffffffffffffffffff168152602001908152602001600020549050919050565b611090611ac5565b61109a6000611b43565b565b6000600660009054906101000a900473ffffffffffffffffffffffffffffffffffffffff16905090565b6110d081836115ab565b61110f576040517f08c379a0000000000000000000000000000000000000000000000000000000008152600401611106906131ae565b60405180910390fd5b6111188261156a565b611157576040517f08c379a000000000000000000000000000000000000000000000000000000000815260040161114e9061322e565b60405180910390fd5b6111608261193a565b5050565b606060018054611173906134ee565b80601f016020809104026020016040519081016040528092919081815260200182805461119f906134ee565b80156111ec5780601f106111c1576101008083540402835291602001916111ec565b820191906000526020600020905b8154815290600101906020018083116111cf57829003601f168201915b5050505050905090565b6112086112016114a9565b8383611c09565b5050565b61121d6112176114a9565b836115ab565b61125c576040517f08c379a00000000000000000000000000000000000000000000000000000000081526004016112539061308e565b60405180910390fd5b61126884848484611d76565b50505050565b60606112798261145e565b6000611283611dd2565b905060008151116112a357604051806020016040528060008152506112ce565b806112ad84611de9565b6040516020016112be929190612f82565b6040516020818303038152906040525b915050919050565b50505050565b6000600560008473ffffffffffffffffffffffffffffffffffffffff1673ffffffffffffffffffffffffffffffffffffffff16815260200190815260200160002060008373ffffffffffffffffffffffffffffffffffffffff1673ffffffffffffffffffffffffffffffffffffffff16815260200190815260200160002060009054906101000a900460ff16905092915050565b611378611ac5565b600073ffffffffffffffffffffffffffffffffffffffff168173ffffffffffffffffffffffffffffffffffffffff1614156113e8576040517f08c379a00000000000000000000000000000000000000000000000000000000081526004016113df906130ce565b60405180910390fd5b6113f181611b43565b50565b60007f01ffc9a7000000000000000000000000000000000000000000000000000000007bffffffffffffffffffffffffffffffffffffffffffffffffffffffff1916827bffffffffffffffffffffffffffffffffffffffffffffffffffffffff1916149050919050565b6114678161156a565b6114a6576040517f08c379a000000000000000000000000000000000000000000000000000000000815260040161149d906131ce565b60405180910390fd5b50565b600033905090565b816004600083815260200190815260200160002060006101000a81548173ffffffffffffffffffffffffffffffffffffffff021916908373ffffffffffffffffffffffffffffffffffffffff160217905550808273ffffffffffffffffffffffffffffffffffffffff1661152483610f49565b73ffffffffffffffffffffffffffffffffffffffff167f8c5be1e5ebec7d5bd14f71427d1e84f3dd0314c0f7b2291e5b200ac8c7c3b92560405160405180910390a45050565b60008073ffffffffffffffffffffffffffffffffffffffff1661158c83611a88565b73ffffffffffffffffffffffffffffffffffffffff1614159050919050565b6000806115b783610f49565b90508073ffffffffffffffffffffffffffffffffffffffff168473ffffffffffffffffffffffffffffffffffffffff1614806115f957506115f881856112dc565b5b8061163757508373ffffffffffffffffffffffffffffffffffffffff1661161f84610606565b73ffffffffffffffffffffffffffffffffffffffff16145b91505092915050565b8273ffffffffffffffffffffffffffffffffffffffff1661166082610f49565b73ffffffffffffffffffffffffffffffffffffffff16146116b6576040517f08c379a00000000000000000000000000000000000000000000000000000000081526004016116ad906130ee565b60405180910390fd5b600073ffffffffffffffffffffffffffffffffffffffff168273ffffffffffffffffffffffffffffffffffffffff161415611726576040517f08c379a000000000000000000000000000000000000000000000000000000000815260040161171d9061312e565b60405180910390fd5b6117338383836001611f0d565b8273ffffffffffffffffffffffffffffffffffffffff1661175382610f49565b73ffffffffffffffffffffffffffffffffffffffff16146117a9576040517f08c379a00000000000000000000000000000000000000000000000000000000081526004016117a0906130ee565b60405180910390fd5b6004600082815260200190815260200160002060006101000a81549073ffffffffffffffffffffffffffffffffffffffff02191690556001600360008573ffffffffffffffffffffffffffffffffffffffff1673ffffffffffffffffffffffffffffffffffffffff168152602001908152602001600020600082825403925050819055506001600360008473ffffffffffffffffffffffffffffffffffffffff1673ffffffffffffffffffffffffffffffffffffffff16815260200190815260200160002060008282540192505081905550816002600083815260200190815260200160002060006101000a81548173ffffffffffffffffffffffffffffffffffffffff021916908373ffffffffffffffffffffffffffffffffffffffff160217905550808273ffffffffffffffffffffffffffffffffffffffff168473ffffffffffffffffffffffffffffffffffffffff167fddf252ad1be2c89b69c2b068fc378daa952ba7f163c4a11628f55a4df523b3ef60405160405180910390a46119358383836001611f13565b505050565b600061194582610f49565b9050611955816000846001611f0d565b61195e82610f49565b90506004600083815260200190815260200160002060006101000a81549073ffffffffffffffffffffffffffffffffffffffff02191690556001600360008373ffffffffffffffffffffffffffffffffffffffff1673ffffffffffffffffffffffffffffffffffffffff168152602001908152602001600020600082825403925050819055506002600083815260200190815260200160002060006101000a81549073ffffffffffffffffffffffffffffffffffffffff021916905581600073ffffffffffffffffffffffffffffffffffffffff168273ffffffffffffffffffffffffffffffffffffffff167fddf252ad1be2c89b69c2b068fc378daa952ba7f163c4a11628f55a4df523b3ef60405160405180910390a4611a84816000846001611f13565b5050565b60006002600083815260200190815260200160002060009054906101000a900473ffffffffffffffffffffffffffffffffffffffff169050919050565b611acd6114a9565b73ffffffffffffffffffffffffffffffffffffffff16611aeb61109c565b73ffffffffffffffffffffffffffffffffffffffff1614611b41576040517f08c379a0000000000000000000000000000000000000000000000000000000008152600401611b389061318e565b60405180910390fd5b565b6000600660009054906101000a900473ffffffffffffffffffffffffffffffffffffffff16905081600660006101000a81548173ffffffffffffffffffffffffffffffffffffffff021916908373ffffffffffffffffffffffffffffffffffffffff1602179055508173ffffffffffffffffffffffffffffffffffffffff168173ffffffffffffffffffffffffffffffffffffffff167f8be0079c531659141344cd1fd0a4f28419497f9722a3daafe3b4186f6b6457e060405160405180910390a35050565b8173ffffffffffffffffffffffffffffffffffffffff168373ffffffffffffffffffffffffffffffffffffffff161415611c78576040517f08c379a0000000000000000000000000000000000000000000000000000000008152600401611c6f9061314e565b60405180910390fd5b80600560008573ffffffffffffffffffffffffffffffffffffffff1673ffffffffffffffffffffffffffffffffffffffff16815260200190815260200160002060008473ffffffffffffffffffffffffffffffffffffffff1673ffffffffffffffffffffffffffffffffffffffff16815260200190815260200160002060006101000a81548160ff0219169083151502179055508173ffffffffffffffffffffffffffffffffffffffff168373ffffffffffffffffffffffffffffffffffffffff167f17307eab39ab6107e8899845ad3d59bd9653f200f220920489ca2b5937696c3183604051611d699190613051565b60405180910390a3505050565b611d81848484611640565b611d8d84848484611f19565b611dcc576040517f08c379a0000000000000000000000000000000000000000000000000000000008152600401611dc3906130ae565b60405180910390fd5b50505050565b606060405180602001604052806000815250905090565b606060006001611df8846120b0565b01905060008167ffffffffffffffff811115611e3d577f4e487b7100000000000000000000000000000000000000000000000000000000600052604160045260246000fd5b6040519080825280601f01601f191660200182016040528015611e6f5781602001600182028036833780820191505090505b509050600082602001820190505b600115611f02578080600190039150507f3031323334353637383961626364656600000000000000000000000000000000600a86061a8153600a8581611eec577f4e487b7100000000000000000000000000000000000000000000000000000000600052601260045260246000fd5b0494506000851415611efd57611f02565b611e7d565b819350505050919050565b50505050565b50505050565b6000611f3a8473ffffffffffffffffffffffffffffffffffffffff166122e7565b156120a3578373ffffffffffffffffffffffffffffffffffffffff1663150b7a02611f636114a9565b8786866040518563ffffffff1660e01b8152600401611f859493929190612fc1565b602060405180830381600087803b158015611f9f57600080fd5b505af1925050508015611fd057506040513d601f19601f82011682018060405250810190611fcd91906126f5565b60015b612053573d8060008114612000576040519150601f19603f3d011682016040523d82523d6000602084013e612005565b606091505b5060008151141561204b576040517f08c379a0000000000000000000000000000000000000000000000000000000008152600401612042906130ae565b60405180910390fd5b805181602001fd5b63150b7a0260e01b7bffffffffffffffffffffffffffffffffffffffffffffffffffffffff1916817bffffffffffffffffffffffffffffffffffffffffffffffffffffffff1916149150506120a8565b600190505b949350505050565b600080600090507a184f03e93ff9f4daa797ed6e38ed64bf6a1f0100000000000000008310612134577a184f03e93ff9f4daa797ed6e38ed64bf6a1f010000000000000000838161212a577f4e487b7100000000000000000000000000000000000000000000000000000000600052601260045260246000fd5b0492506040810190505b6d04ee2d6d415b85acef81000000008310612197576d04ee2d6d415b85acef8100000000838161218d577f4e487b7100000000000000000000000000000000000000000000000000000000600052601260045260246000fd5b0492506020810190505b662386f26fc1000083106121ec57662386f26fc1000083816121e2577f4e487b7100000000000000000000000000000000000000000000000000000000600052601260045260246000fd5b0492506010810190505b6305f5e100831061223b576305f5e1008381612231577f4e487b7100000000000000000000000000000000000000000000000000000000600052601260045260246000fd5b0492506008810190505b612710831061228657612710838161227c577f4e487b7100000000000000000000000000000000000000000000000000000000600052601260045260246000fd5b0492506004810190505b606483106122cf57606483816122c5577f4e487b7100000000000000000000000000000000000000000000000000000000600052601260045260246000fd5b0492506002810190505b600a83106122de576001810190505b80915050919050565b6000808273ffffffffffffffffffffffffffffffffffffffff16803b806020016040519081016040528181526000908060200190933c51119050919050565b6040518060a0016040528060608152602001600081526020016000815260200160608152602001600081525090565b6040518060400160405280600081526020016000151581525090565b600061238461237f846132bc565b61328b565b90508281526020810184848401111561239c57600080fd5b6123a78482856134ac565b509392505050565b60006123c26123bd846132ec565b61328b565b9050828152602081018484840111156123da57600080fd5b6123e58482856134ac565b509392505050565b6000813590506123fc81613607565b92915050565b6000813590506124118161361e565b92915050565b60008135905061242681613635565b92915050565b60008151905061243b81613635565b92915050565b600082601f83011261245257600080fd5b8135612462848260208601612371565b91505092915050565b600082601f83011261247c57600080fd5b813561248c8482602086016123af565b91505092915050565b6000813590506124a48161364c565b92915050565b6000602082840312156124bc57600080fd5b60006124ca848285016123ed565b91505092915050565b600080604083850312156124e657600080fd5b60006124f4858286016123ed565b9250506020612505858286016123ed565b9150509250929050565b60008060006060848603121561252457600080fd5b6000612532868287016123ed565b9350506020612543868287016123ed565b925050604061255486828701612495565b9150509250925092565b6000806000806080858703121561257457600080fd5b6000612582878288016123ed565b9450506020612593878288016123ed565b93505060406125a487828801612495565b925050606085013567ffffffffffffffff8111156125c157600080fd5b6125cd87828801612441565b91505092959194509250565b600080604083850312156125ec57600080fd5b60006125fa858286016123ed565b925050602061260b85828601612402565b9150509250929050565b6000806000806080858703121561262b57600080fd5b6000612639878288016123ed565b945050602085013567ffffffffffffffff81111561265657600080fd5b6126628782880161246b565b935050604061267387828801612495565b925050606061268487828801612495565b91505092959194509250565b600080604083850312156126a357600080fd5b60006126b1858286016123ed565b92505060206126c285828601612495565b9150509250929050565b6000602082840312156126de57600080fd5b60006126ec84828501612417565b91505092915050565b60006020828403121561270757600080fd5b60006127158482850161242c565b91505092915050565b60006020828403121561273057600080fd5b600061273e84828501612495565b91505092915050565b6000806040838503121561275a57600080fd5b600061276885828601612495565b9250506020612779858286016123ed565b9150509250929050565b600061278f8383612e3b565b905092915050565b60006127a38383612f35565b60408301905092915050565b6127b881613438565b82525050565b60006127c98261333c565b6127d38185613382565b9350836020820285016127e58561331c565b8060005b8581101561282157848403895281516128028582612783565b945061280d83613368565b925060208a019950506001810190506127e9565b50829750879550505050505092915050565b600061283e82613347565b6128488185613393565b93506128538361332c565b8060005b8381101561288457815161286b8882612797565b975061287683613375565b925050600181019050612857565b5085935050505092915050565b61289a8161344a565b82525050565b6128a98161344a565b82525050565b60006128ba82613352565b6128c481856133a4565b93506128d48185602086016134bb565b6128dd816135f6565b840191505092915050565b60006128f38261335d565b6128fd81856133b5565b935061290d8185602086016134bb565b612916816135f6565b840191505092915050565b600061292c8261335d565b61293681856133c6565b93506129468185602086016134bb565b61294f816135f6565b840191505092915050565b60006129658261335d565b61296f81856133d7565b935061297f8185602086016134bb565b80840191505092915050565b6000612998602d836133c6565b91507f4552433732313a2063616c6c6572206973206e6f7420746f6b656e206f776e6560008301527f72206f7220617070726f766564000000000000000000000000000000000000006020830152604082019050919050565b60006129fe6032836133c6565b91507f4552433732313a207472616e7366657220746f206e6f6e20455243373231526560008301527f63656976657220696d706c656d656e74657200000000000000000000000000006020830152604082019050919050565b6000612a646026836133c6565b91507f4f776e61626c653a206e6577206f776e657220697320746865207a65726f206160008301527f64647265737300000000000000000000000000000000000000000000000000006020830152604082019050919050565b6000612aca6025836133c6565b91507f4552433732313a207472616e736665722066726f6d20696e636f72726563742060008301527f6f776e65720000000000000000000000000000000000000000000000000000006020830152604082019050919050565b6000612b306011836133c6565b91507f4e465420646f65736e27742065786973740000000000000000000000000000006000830152602082019050919050565b6000612b706024836133c6565b91507f4552433732313a207472616e7366657220746f20746865207a65726f2061646460008301527f72657373000000000000000000000000000000000000000000000000000000006020830152604082019050919050565b6000612bd66019836133c6565b91507f4552433732313a20617070726f766520746f2063616c6c6572000000000000006000830152602082019050919050565b6000612c166029836133c6565b91507f4552433732313a2061646472657373207a65726f206973206e6f74206120766160008301527f6c6964206f776e657200000000000000000000000000000000000000000000006020830152604082019050919050565b6000612c7c6020836133c6565b91507f4f776e61626c653a2063616c6c6572206973206e6f7420746865206f776e65726000830152602082019050919050565b6000612cbc6015836133c6565b91507f4e6f7420617070726f766564206f72206f776e657200000000000000000000006000830152602082019050919050565b6000612cfc6018836133c6565b91507f4552433732313a20696e76616c696420746f6b656e20494400000000000000006000830152602082019050919050565b6000612d3c6021836133c6565b91507f4552433732313a20617070726f76616c20746f2063757272656e74206f776e6560008301527f72000000000000000000000000000000000000000000000000000000000000006020830152604082019050919050565b6000612da2603d836133c6565b91507f4552433732313a20617070726f76652063616c6c6572206973206e6f7420746f60008301527f6b656e206f776e6572206f7220617070726f76656420666f7220616c6c0000006020830152604082019050919050565b6000612e086013836133c6565b91507f4e465420616c72656164792065787069726564000000000000000000000000006000830152602082019050919050565b600060a0830160008301518482036000860152612e5882826128e8565b9150506020830151612e6d6020860182612f64565b506040830151612e806040860182612f64565b5060608301518482036060860152612e9882826128e8565b9150506080830151612ead6080860182612f64565b508091505092915050565b600060a0830160008301518482036000860152612ed582826128e8565b9150506020830151612eea6020860182612f64565b506040830151612efd6040860182612f64565b5060608301518482036060860152612f1582826128e8565b9150506080830151612f2a6080860182612f64565b508091505092915050565b604082016000820151612f4b6000850182612f64565b506020820151612f5e6020850182612891565b50505050565b612f6d816134a2565b82525050565b612f7c816134a2565b82525050565b6000612f8e828561295a565b9150612f9a828461295a565b91508190509392505050565b6000602082019050612fbb60008301846127af565b92915050565b6000608082019050612fd660008301876127af565b612fe360208301866127af565b612ff06040830185612f73565b818103606083015261300281846128af565b905095945050505050565b6000602082019050818103600083015261302781846127be565b905092915050565b600060208201905081810360008301526130498184612833565b905092915050565b600060208201905061306660008301846128a0565b92915050565b600060208201905081810360008301526130868184612921565b905092915050565b600060208201905081810360008301526130a78161298b565b9050919050565b600060208201905081810360008301526130c7816129f1565b9050919050565b600060208201905081810360008301526130e781612a57565b9050919050565b6000602082019050818103600083015261310781612abd565b9050919050565b6000602082019050818103600083015261312781612b23565b9050919050565b6000602082019050818103600083015261314781612b63565b9050919050565b6000602082019050818103600083015261316781612bc9565b9050919050565b6000602082019050818103600083015261318781612c09565b9050919050565b600060208201905081810360008301526131a781612c6f565b9050919050565b600060208201905081810360008301526131c781612caf565b9050919050565b600060208201905081810360008301526131e781612cef565b9050919050565b6000602082019050818103600083015261320781612d2f565b9050919050565b6000602082019050818103600083015261322781612d95565b9050919050565b6000602082019050818103600083015261324781612dfb565b9050919050565b600060208201905081810360008301526132688184612eb8565b905092915050565b60006020820190506132856000830184612f73565b92915050565b6000604051905081810181811067ffffffffffffffff821117156132b2576132b16135c7565b5b8060405250919050565b600067ffffffffffffffff8211156132d7576132d66135c7565b5b601f19601f8301169050602081019050919050565b600067ffffffffffffffff821115613307576133066135c7565b5b601f19601f8301169050602081019050919050565b6000819050602082019050919050565b6000819050602082019050919050565b600081519050919050565b600081519050919050565b600081519050919050565b600081519050919050565b6000602082019050919050565b6000602082019050919050565b600082825260208201905092915050565b600082825260208201905092915050565b600082825260208201905092915050565b600082825260208201905092915050565b600082825260208201905092915050565b600081905092915050565b60006133ed826134a2565b91506133f8836134a2565b9250827fffffffffffffffffffffffffffffffffffffffffffffffffffffffffffffffff0382111561342d5761342c613569565b5b828201905092915050565b600061344382613482565b9050919050565b60008115159050919050565b60007fffffffff0000000000000000000000000000000000000000000000000000000082169050919050565b600073ffffffffffffffffffffffffffffffffffffffff82169050919050565b6000819050919050565b82818337600083830152505050565b60005b838110156134d95780820151818401526020810190506134be565b838111156134e8576000848401525b50505050565b6000600282049050600182168061350657607f821691505b6020821081141561351a57613519613598565b5b50919050565b600061352b826134a2565b91507fffffffffffffffffffffffffffffffffffffffffffffffffffffffffffffffff82141561355e5761355d613569565b5b600182019050919050565b7f4e487b7100000000000000000000000000000000000000000000000000000000600052601160045260246000fd5b7f4e487b7100000000000000000000000000000000000000000000000000000000600052602260045260246000fd5b7f4e487b7100000000000000000000000000000000000000000000000000000000600052604160045260246000fd5b6000601f19601f8301169050919050565b61361081613438565b811461361b57600080fd5b50565b6136278161344a565b811461363257600080fd5b50565b61363e81613456565b811461364957600080fd5b50565b613655816134a2565b811461366057600080fd5b5056fea264697066735822122076735582d6f9b21caa21a93e381ac82aed446c9308f63c96a875cc658429fc7864736f6c63430008000033",
  "immutableReferences": {},
  "source": "// SPDX-License-Identifier: MIT\r\npragma solidity ^0.8.0;\r\n\r\nimport \"@openzeppelin/contracts/token/ERC721/ERC721.sol\";\r\nimport \"@openzeppelin/contracts/access/Ownable.sol\";\r\nimport \"@openzeppelin/contracts/utils/Counters.sol\";\r\n\r\ncontract CustomNFT is ERC721, Ownable {\r\n    using Counters for Counters.Counter;\r\n\r\n    struct NFTData {\r\n        string imageUrl;\r\n        uint256 nftType;\r\n        uint256 value;\r\n        string sellerId;\r\n        // uint256 typo;\r\n        uint256 expiryTimestamp;\r\n    }\r\n   \r\n    Counters.Counter private _tokenCounter;\r\n\r\n    mapping(address => uint256[]) private _walletNFTs;\r\n    mapping(uint256 => NFTData) private _nftData;\r\n    constructor(string memory _name, string memory _symbol) ERC721(_name, _symbol) {}\r\n event LogMessage(string message);\r\n\r\n    // constructor(string memory _name, string memory _symbol) ERC721(_name, _symbol) {}\r\n\r\n   function issueNFT(\r\n    address wallet,\r\n    string memory imageUrl,\r\n    uint256  nftType,\r\n    uint256 value\r\n) external {\r\n}\r\n\r\nfunction issueNFT(\r\n    address wallet,\r\n    string memory imageUrl,\r\n    uint256 nftType,\r\n    uint256 value,\r\n    string memory sellerId\r\n) internal {\r\n    require(wallet != address(0), \"Invalid wallet address\");\r\n    require(msg.sender != wallet, \"Wallet cannot be the same as the sender\");\r\n\r\n    uint256 tokenId = _tokenCounter.current();\r\n    _mint(wallet, tokenId);\r\n\r\n    NFTData memory nft = NFTData({\r\n        imageUrl: imageUrl,\r\n        nftType: nftType,\r\n        value: value,\r\n        sellerId: sellerId,\r\n        expiryTimestamp: block.timestamp\r\n    });\r\n    _nftData[tokenId] = nft;\r\n    _walletNFTs[wallet].push(tokenId);\r\n\r\n    _tokenCounter.increment();\r\n    \r\n}\r\n\r\n  function getNFTsByWallet(address wallet) external view returns (NFTData[] memory) {\r\n    uint256[] memory tokenIds = _walletNFTs[wallet];\r\n    NFTData[] memory nfts = new NFTData[](tokenIds.length);\r\n\r\n    for (uint256 i = 0; i < tokenIds.length; i++) {\r\n        uint256 tokenId = tokenIds[i];\r\n        // require(_exists(tokenId), \"NFT does not exist\"); \r\n        \r\n        nfts[i] = _nftData[tokenId];\r\n    }\r\n\r\n    return nfts;\r\n}\r\n  function getNFTsByWalletExp(address wallet) external view returns (Tuple[] memory) {\r\n    uint256[] memory tokenIds = _walletNFTs[wallet];\r\n    Tuple[] memory result = new Tuple[](tokenIds.length);\r\n\r\n    for (uint256 i = 0; i < tokenIds.length; i++) {\r\n        uint256 tokenId = tokenIds[i];\r\n        bool isExpired = !_exists(tokenId);\r\n        result[i] = Tuple(tokenId, isExpired);\r\n    }\r\n\r\n    return result;\r\n}\r\n\r\nstruct Tuple {\r\n    uint256 tokenId;\r\n    bool isExpired;\r\n}\r\n\r\n    function getNFTData(uint256 tokenId) external view returns (NFTData memory) {\r\n        return _nftData[tokenId];\r\n    }\r\n\r\n    function expireNFT(uint256 tokenId, address wallet) external {\r\n        require(_isApprovedOrOwner(wallet, tokenId), \"Not approved or owner\");\r\n        require(_exists(tokenId), \"NFT already expired\");\r\n\r\n        _burn(tokenId);\r\n    }\r\n\r\nfunction autoExpireNFT(uint256 tokenId) external {\r\n    require(_exists(tokenId), \"NFT doesn't exist\");\r\n\r\n    uint256 expiryTimestamp = _nftData[tokenId].expiryTimestamp;\r\n\r\n    require(expiryTimestamp > 0, \"NFT already expired\"); // Ensure the expiry timestamp is set\r\n\r\n    uint256 thirtyDaysInSeconds = 30 days;\r\n    if (expiryTimestamp + thirtyDaysInSeconds <= block.timestamp) {\r\n        _burn(tokenId);\r\n    }\r\n}\r\n\r\n   \r\n\r\n    function _isExpired(uint256 tokenId) external view returns (bool) {\r\n        return !_exists(tokenId);\r\n    }\r\n}",
  "sourcePath": "D:\\GRID\\Loyalty_Reward_Chains\\src\\contracts\\NFT.sol",
  "compiler": {
    "name": "solc",
    "version": "0.8.0+commit.c7dfd78e.Emscripten.clang"
  },
  "schemaVersion": "3.4.13",
  "updatedAt": "2023-08-19T10:47:19.905Z",
  "networkType": "ethereum",
  "devdoc": {
    "kind": "dev",
    "methods": {
      "approve(address,uint256)": {
        "details": "See {IERC721-approve}."
      },
      "balanceOf(address)": {
        "details": "See {IERC721-balanceOf}."
      },
      "getApproved(uint256)": {
        "details": "See {IERC721-getApproved}."
      },
      "isApprovedForAll(address,address)": {
        "details": "See {IERC721-isApprovedForAll}."
      },
      "name()": {
        "details": "See {IERC721Metadata-name}."
      },
      "owner()": {
        "details": "Returns the address of the current owner."
      },
      "ownerOf(uint256)": {
        "details": "See {IERC721-ownerOf}."
      },
      "renounceOwnership()": {
        "details": "Leaves the contract without owner. It will not be possible to call `onlyOwner` functions. Can only be called by the current owner. NOTE: Renouncing ownership will leave the contract without an owner, thereby disabling any functionality that is only available to the owner."
      },
      "safeTransferFrom(address,address,uint256)": {
        "details": "See {IERC721-safeTransferFrom}."
      },
      "safeTransferFrom(address,address,uint256,bytes)": {
        "details": "See {IERC721-safeTransferFrom}."
      },
      "setApprovalForAll(address,bool)": {
        "details": "See {IERC721-setApprovalForAll}."
      },
      "supportsInterface(bytes4)": {
        "details": "See {IERC165-supportsInterface}."
      },
      "symbol()": {
        "details": "See {IERC721Metadata-symbol}."
      },
      "tokenURI(uint256)": {
        "details": "See {IERC721Metadata-tokenURI}."
      },
      "transferFrom(address,address,uint256)": {
        "details": "See {IERC721-transferFrom}."
      },
      "transferOwnership(address)": {
        "details": "Transfers ownership of the contract to a new account (`newOwner`). Can only be called by the current owner."
      }
    },
    "version": 1
  },
  "userdoc": {
    "kind": "user",
    "methods": {},
    "version": 1
  }
}