{
  "contractName": "CustomNFT",
  "abi": [
    {
      "inputs": [
        {
          "internalType": "string",
          "name": "_name",
          "type": "string"
        },
        {
          "internalType": "string",
          "name": "_symbol",
          "type": "string"
        }
      ],
      "stateMutability": "nonpayable",
      "type": "constructor"
    },
    {
      "anonymous": false,
      "inputs": [
        {
          "indexed": true,
          "internalType": "address",
          "name": "owner",
          "type": "address"
        },
        {
          "indexed": true,
          "internalType": "address",
          "name": "approved",
          "type": "address"
        },
        {
          "indexed": true,
          "internalType": "uint256",
          "name": "tokenId",
          "type": "uint256"
        }
      ],
      "name": "Approval",
      "type": "event"
    },
    {
      "anonymous": false,
      "inputs": [
        {
          "indexed": true,
          "internalType": "address",
          "name": "owner",
          "type": "address"
        },
        {
          "indexed": true,
          "internalType": "address",
          "name": "operator",
          "type": "address"
        },
        {
          "indexed": false,
          "internalType": "bool",
          "name": "approved",
          "type": "bool"
        }
      ],
      "name": "ApprovalForAll",
      "type": "event"
    },
    {
      "anonymous": false,
      "inputs": [
        {
          "indexed": false,
          "internalType": "string",
          "name": "message",
          "type": "string"
        }
      ],
      "name": "LogMessage",
      "type": "event"
    },
    {
      "anonymous": false,
      "inputs": [
        {
          "indexed": true,
          "internalType": "address",
          "name": "previousOwner",
          "type": "address"
        },
        {
          "indexed": true,
          "internalType": "address",
          "name": "newOwner",
          "type": "address"
        }
      ],
      "name": "OwnershipTransferred",
      "type": "event"
    },
    {
      "anonymous": false,
      "inputs": [
        {
          "indexed": true,
          "internalType": "address",
          "name": "from",
          "type": "address"
        },
        {
          "indexed": true,
          "internalType": "address",
          "name": "to",
          "type": "address"
        },
        {
          "indexed": true,
          "internalType": "uint256",
          "name": "tokenId",
          "type": "uint256"
        }
      ],
      "name": "Transfer",
      "type": "event"
    },
    {
      "inputs": [
        {
          "internalType": "address",
          "name": "to",
          "type": "address"
        },
        {
          "internalType": "uint256",
          "name": "tokenId",
          "type": "uint256"
        }
      ],
      "name": "approve",
      "outputs": [],
      "stateMutability": "nonpayable",
      "type": "function"
    },
    {
      "inputs": [
        {
          "internalType": "address",
          "name": "owner",
          "type": "address"
        }
      ],
      "name": "balanceOf",
      "outputs": [
        {
          "internalType": "uint256",
          "name": "",
          "type": "uint256"
        }
      ],
      "stateMutability": "view",
      "type": "function",
      "constant": true
    },
    {
      "inputs": [
        {
          "internalType": "uint256",
          "name": "tokenId",
          "type": "uint256"
        }
      ],
      "name": "getApproved",
      "outputs": [
        {
          "internalType": "address",
          "name": "",
          "type": "address"
        }
      ],
      "stateMutability": "view",
      "type": "function",
      "constant": true
    },
    {
      "inputs": [
        {
          "internalType": "address",
          "name": "owner",
          "type": "address"
        },
        {
          "internalType": "address",
          "name": "operator",
          "type": "address"
        }
      ],
      "name": "isApprovedForAll",
      "outputs": [
        {
          "internalType": "bool",
          "name": "",
          "type": "bool"
        }
      ],
      "stateMutability": "view",
      "type": "function",
      "constant": true
    },
    {
      "inputs": [],
      "name": "name",
      "outputs": [
        {
          "internalType": "string",
          "name": "",
          "type": "string"
        }
      ],
      "stateMutability": "view",
      "type": "function",
      "constant": true
    },
    {
      "inputs": [],
      "name": "owner",
      "outputs": [
        {
          "internalType": "address",
          "name": "",
          "type": "address"
        }
      ],
      "stateMutability": "view",
      "type": "function",
      "constant": true
    },
    {
      "inputs": [
        {
          "internalType": "uint256",
          "name": "tokenId",
          "type": "uint256"
        }
      ],
      "name": "ownerOf",
      "outputs": [
        {
          "internalType": "address",
          "name": "",
          "type": "address"
        }
      ],
      "stateMutability": "view",
      "type": "function",
      "constant": true
    },
    {
      "inputs": [],
      "name": "renounceOwnership",
      "outputs": [],
      "stateMutability": "nonpayable",
      "type": "function"
    },
    {
      "inputs": [
        {
          "internalType": "address",
          "name": "from",
          "type": "address"
        },
        {
          "internalType": "address",
          "name": "to",
          "type": "address"
        },
        {
          "internalType": "uint256",
          "name": "tokenId",
          "type": "uint256"
        }
      ],
      "name": "safeTransferFrom",
      "outputs": [],
      "stateMutability": "nonpayable",
      "type": "function"
    },
    {
      "inputs": [
        {
          "internalType": "address",
          "name": "from",
          "type": "address"
        },
        {
          "internalType": "address",
          "name": "to",
          "type": "address"
        },
        {
          "internalType": "uint256",
          "name": "tokenId",
          "type": "uint256"
        },
        {
          "internalType": "bytes",
          "name": "data",
          "type": "bytes"
        }
      ],
      "name": "safeTransferFrom",
      "outputs": [],
      "stateMutability": "nonpayable",
      "type": "function"
    },
    {
      "inputs": [
        {
          "internalType": "address",
          "name": "operator",
          "type": "address"
        },
        {
          "internalType": "bool",
          "name": "approved",
          "type": "bool"
        }
      ],
      "name": "setApprovalForAll",
      "outputs": [],
      "stateMutability": "nonpayable",
      "type": "function"
    },
    {
      "inputs": [
        {
          "internalType": "bytes4",
          "name": "interfaceId",
          "type": "bytes4"
        }
      ],
      "name": "supportsInterface",
      "outputs": [
        {
          "internalType": "bool",
          "name": "",
          "type": "bool"
        }
      ],
      "stateMutability": "view",
      "type": "function",
      "constant": true
    },
    {
      "inputs": [],
      "name": "symbol",
      "outputs": [
        {
          "internalType": "string",
          "name": "",
          "type": "string"
        }
      ],
      "stateMutability": "view",
      "type": "function",
      "constant": true
    },
    {
      "inputs": [
        {
          "internalType": "uint256",
          "name": "tokenId",
          "type": "uint256"
        }
      ],
      "name": "tokenURI",
      "outputs": [
        {
          "internalType": "string",
          "name": "",
          "type": "string"
        }
      ],
      "stateMutability": "view",
      "type": "function",
      "constant": true
    },
    {
      "inputs": [
        {
          "internalType": "address",
          "name": "from",
          "type": "address"
        },
        {
          "internalType": "address",
          "name": "to",
          "type": "address"
        },
        {
          "internalType": "uint256",
          "name": "tokenId",
          "type": "uint256"
        }
      ],
      "name": "transferFrom",
      "outputs": [],
      "stateMutability": "nonpayable",
      "type": "function"
    },
    {
      "inputs": [
        {
          "internalType": "address",
          "name": "newOwner",
          "type": "address"
        }
      ],
      "name": "transferOwnership",
      "outputs": [],
      "stateMutability": "nonpayable",
      "type": "function"
    },
    {
      "inputs": [
        {
          "internalType": "address",
          "name": "wallet",
          "type": "address"
        },
        {
          "internalType": "string",
          "name": "imageUrl",
          "type": "string"
        },
        {
          "internalType": "uint256",
          "name": "nftType",
          "type": "uint256"
        },
        {
          "internalType": "uint256",
          "name": "value",
          "type": "uint256"
        },
        {
          "internalType": "string",
          "name": "sellerId",
          "type": "string"
        }
      ],
      "name": "issueNFT",
      "outputs": [],
      "stateMutability": "nonpayable",
      "type": "function"
    },
    {
      "inputs": [
        {
          "internalType": "address",
          "name": "wallet",
          "type": "address"
        }
      ],
      "name": "getNFTsByWallet",
      "outputs": [
        {
          "components": [
            {
              "internalType": "string",
              "name": "imageUrl",
              "type": "string"
            },
            {
              "internalType": "uint256",
              "name": "nftType",
              "type": "uint256"
            },
            {
              "internalType": "uint256",
              "name": "value",
              "type": "uint256"
            },
            {
              "internalType": "string",
              "name": "sellerId",
              "type": "string"
            },
            {
              "internalType": "uint256",
              "name": "expiryTimestamp",
              "type": "uint256"
            }
          ],
          "internalType": "struct CustomNFT.NFTData[]",
          "name": "",
          "type": "tuple[]"
        }
      ],
      "stateMutability": "view",
      "type": "function",
      "constant": true
    },
    {
      "inputs": [
        {
          "internalType": "address",
          "name": "wallet",
          "type": "address"
        }
      ],
      "name": "getNFTsByWalletExp",
      "outputs": [
        {
          "components": [
            {
              "internalType": "uint256",
              "name": "tokenId",
              "type": "uint256"
            },
            {
              "internalType": "bool",
              "name": "isExpired",
              "type": "bool"
            }
          ],
          "internalType": "struct CustomNFT.Tuple[]",
          "name": "",
          "type": "tuple[]"
        }
      ],
      "stateMutability": "view",
      "type": "function",
      "constant": true
    },
    {
      "inputs": [
        {
          "internalType": "uint256",
          "name": "tokenId",
          "type": "uint256"
        }
      ],
      "name": "getNFTData",
      "outputs": [
        {
          "components": [
            {
              "internalType": "string",
              "name": "imageUrl",
              "type": "string"
            },
            {
              "internalType": "uint256",
              "name": "nftType",
              "type": "uint256"
            },
            {
              "internalType": "uint256",
              "name": "value",
              "type": "uint256"
            },
            {
              "internalType": "string",
              "name": "sellerId",
              "type": "string"
            },
            {
              "internalType": "uint256",
              "name": "expiryTimestamp",
              "type": "uint256"
            }
          ],
          "internalType": "struct CustomNFT.NFTData",
          "name": "",
          "type": "tuple"
        }
      ],
      "stateMutability": "view",
      "type": "function",
      "constant": true
    },
    {
      "inputs": [
        {
          "internalType": "uint256",
          "name": "tokenId",
          "type": "uint256"
        },
        {
          "internalType": "address",
          "name": "wallet",
          "type": "address"
        }
      ],
      "name": "expireNFT",
      "outputs": [],
      "stateMutability": "nonpayable",
      "type": "function"
    },
    {
      "inputs": [
        {
          "internalType": "uint256",
          "name": "tokenId",
          "type": "uint256"
        }
      ],
      "name": "autoExpireNFT",
      "outputs": [],
      "stateMutability": "nonpayable",
      "type": "function"
    },
    {
      "inputs": [],
      "name": "getAllMintedNFTs",
      "outputs": [
        {
          "components": [
            {
              "internalType": "string",
              "name": "imageUrl",
              "type": "string"
            },
            {
              "internalType": "uint256",
              "name": "nftType",
              "type": "uint256"
            },
            {
              "internalType": "uint256",
              "name": "value",
              "type": "uint256"
            },
            {
              "internalType": "string",
              "name": "sellerId",
              "type": "string"
            },
            {
              "internalType": "uint256",
              "name": "expiryTimestamp",
              "type": "uint256"
            }
          ],
          "internalType": "struct CustomNFT.NFTData[]",
          "name": "",
          "type": "tuple[]"
        }
      ],
      "stateMutability": "view",
      "type": "function",
      "constant": true
    },
    {
      "inputs": [
        {
          "internalType": "uint256",
          "name": "tokenId",
          "type": "uint256"
        }
      ],
      "name": "_isExpired",
      "outputs": [
        {
          "internalType": "bool",
          "name": "",
          "type": "bool"
        }
      ],
      "stateMutability": "view",
      "type": "function",
      "constant": true
    }
  ],
  "bytecode": "0x60806040523480156200001157600080fd5b506040516200441238038062004412833981810160405281019062000037919062000285565b818181600090805190602001906200005192919062000163565b5080600190805190602001906200006a92919062000163565b5050506200008d620000816200009560201b60201c565b6200009d60201b60201c565b505062000429565b600033905090565b6000600660009054906101000a900473ffffffffffffffffffffffffffffffffffffffff16905081600660006101000a81548173ffffffffffffffffffffffffffffffffffffffff021916908373ffffffffffffffffffffffffffffffffffffffff1602179055508173ffffffffffffffffffffffffffffffffffffffff168173ffffffffffffffffffffffffffffffffffffffff167f8be0079c531659141344cd1fd0a4f28419497f9722a3daafe3b4186f6b6457e060405160405180910390a35050565b828054620001719062000395565b90600052602060002090601f016020900481019282620001955760008555620001e1565b82601f10620001b057805160ff1916838001178555620001e1565b82800160010185558215620001e1579182015b82811115620001e0578251825591602001919060010190620001c3565b5b509050620001f09190620001f4565b5090565b5b808211156200020f576000816000905550600101620001f5565b5090565b60006200022a62000224846200032c565b620002f8565b9050828152602081018484840111156200024357600080fd5b620002508482856200035f565b509392505050565b600082601f8301126200026a57600080fd5b81516200027c84826020860162000213565b91505092915050565b600080604083850312156200029957600080fd5b600083015167ffffffffffffffff811115620002b457600080fd5b620002c28582860162000258565b925050602083015167ffffffffffffffff811115620002e057600080fd5b620002ee8582860162000258565b9150509250929050565b6000604051905081810181811067ffffffffffffffff82111715620003225762000321620003fa565b5b8060405250919050565b600067ffffffffffffffff8211156200034a5762000349620003fa565b5b601f19601f8301169050602081019050919050565b60005b838110156200037f57808201518184015260208101905062000362565b838111156200038f576000848401525b50505050565b60006002820490506001821680620003ae57607f821691505b60208210811415620003c557620003c4620003cb565b5b50919050565b7f4e487b7100000000000000000000000000000000000000000000000000000000600052602260045260246000fd5b7f4e487b7100000000000000000000000000000000000000000000000000000000600052604160045260246000fd5b613fd980620004396000396000f3fe608060405234801561001057600080fd5b50600436106101585760003560e01c806370a08231116100c3578063b88d4fde1161007c578063b88d4fde146103e9578063c87b56dd14610405578063d503edd914610435578063db761fca14610451578063e985e9c51461046f578063f2fde38b1461049f57610158565b806370a082311461033b578063715018a61461036b5780638da5cb5b146103755780639580a9891461039357806395d89b41146103af578063a22cb465146103cd57610158565b80631403835f116101155780631403835f1461025757806323b872dd1461028757806337afabe0146102a357806342842e0e146102d3578063599f7e59146102ef5780636352211e1461030b57610158565b806301ffc9a71461015d57806306fdde031461018d578063081812fc146101ab578063095ea7b3146101db5780630ad4c4f4146101f75780630b61addb14610227575b600080fd5b61017760048036038101906101729190612e66565b6104bb565b6040516101849190613911565b60405180910390f35b61019561059d565b6040516101a2919061392c565b60405180910390f35b6101c560048036038101906101c09190612eb8565b61062f565b6040516101d29190613866565b60405180910390f35b6101f560048036038101906101f09190612e2a565b610675565b005b610211600480360381019061020c9190612eb8565b61078d565b60405161021e9190613b8e565b60405180910390f35b610241600480360381019061023c9190612c18565b6108fc565b60405161024e91906138ef565b60405180910390f35b610271600480360381019061026c9190612eb8565b610ae9565b60405161027e9190613911565b60405180910390f35b6102a1600480360381019061029c9190612c7d565b610afc565b005b6102bd60048036038101906102b89190612c18565b610b5c565b6040516102ca91906138cd565b60405180910390f35b6102ed60048036038101906102e89190612c7d565b610e83565b005b61030960048036038101906103049190612eb8565b610ea3565b005b61032560048036038101906103209190612eb8565b610f72565b6040516103329190613866565b60405180910390f35b61035560048036038101906103509190612c18565b610ff9565b6040516103629190613bb0565b60405180910390f35b6103736110b1565b005b61037d6110c5565b60405161038a9190613866565b60405180910390f35b6103ad60048036038101906103a89190612ee1565b6110ef565b005b6103b761118d565b6040516103c4919061392c565b60405180910390f35b6103e760048036038101906103e29190612d47565b61121f565b005b61040360048036038101906103fe9190612ccc565b611235565b005b61041f600480360381019061041a9190612eb8565b611297565b60405161042c919061392c565b60405180910390f35b61044f600480360381019061044a9190612d83565b6112ff565b005b610459611509565b60405161046691906138cd565b60405180910390f35b61048960048036038101906104849190612c41565b611765565b6040516104969190613911565b60405180910390f35b6104b960048036038101906104b49190612c18565b6117f9565b005b60007f80ac58cd000000000000000000000000000000000000000000000000000000007bffffffffffffffffffffffffffffffffffffffffffffffffffffffff1916827bffffffffffffffffffffffffffffffffffffffffffffffffffffffff1916148061058657507f5b5e139f000000000000000000000000000000000000000000000000000000007bffffffffffffffffffffffffffffffffffffffffffffffffffffffff1916827bffffffffffffffffffffffffffffffffffffffffffffffffffffffff1916145b8061059657506105958261187d565b5b9050919050565b6060600080546105ac90613e2e565b80601f01602080910402602001604051908101604052809291908181526020018280546105d890613e2e565b80156106255780601f106105fa57610100808354040283529160200191610625565b820191906000526020600020905b81548152906001019060200180831161060857829003601f168201915b5050505050905090565b600061063a826118e7565b6004600083815260200190815260200160002060009054906101000a900473ffffffffffffffffffffffffffffffffffffffff169050919050565b600061068082610f72565b90508073ffffffffffffffffffffffffffffffffffffffff168373ffffffffffffffffffffffffffffffffffffffff1614156106f1576040517f08c379a00000000000000000000000000000000000000000000000000000000081526004016106e890613b0e565b60405180910390fd5b8073ffffffffffffffffffffffffffffffffffffffff16610710611932565b73ffffffffffffffffffffffffffffffffffffffff16148061073f575061073e81610739611932565b611765565b5b61077e576040517f08c379a000000000000000000000000000000000000000000000000000000000815260040161077590613b2e565b60405180910390fd5b610788838361193a565b505050565b6107956129f1565b600960008381526020019081526020016000206040518060a00160405290816000820180546107c390613e2e565b80601f01602080910402602001604051908101604052809291908181526020018280546107ef90613e2e565b801561083c5780601f106108115761010080835404028352916020019161083c565b820191906000526020600020905b81548152906001019060200180831161081f57829003601f168201915b50505050508152602001600182015481526020016002820154815260200160038201805461086990613e2e565b80601f016020809104026020016040519081016040528092919081815260200182805461089590613e2e565b80156108e25780601f106108b7576101008083540402835291602001916108e2565b820191906000526020600020905b8154815290600101906020018083116108c557829003601f168201915b505050505081526020016004820154815250509050919050565b60606000600860008473ffffffffffffffffffffffffffffffffffffffff1673ffffffffffffffffffffffffffffffffffffffff16815260200190815260200160002080548060200260200160405190810160405280929190818152602001828054801561098957602002820191906000526020600020905b815481526020019060010190808311610975575b505050505090506000815167ffffffffffffffff8111156109d3577f4e487b7100000000000000000000000000000000000000000000000000000000600052604160045260246000fd5b604051908082528060200260200182016040528015610a0c57816020015b6109f9612a20565b8152602001906001900390816109f15790505b50905060005b8251811015610ade576000838281518110610a56577f4e487b7100000000000000000000000000000000000000000000000000000000600052603260045260246000fd5b602002602001015190506000610a6b826119f3565b1590506040518060400160405280838152602001821515815250848481518110610abe577f4e487b7100000000000000000000000000000000000000000000000000000000600052603260045260246000fd5b602002602001018190525050508080610ad690613e60565b915050610a12565b508092505050919050565b6000610af4826119f3565b159050919050565b610b0d610b07611932565b82611a34565b610b4c576040517f08c379a0000000000000000000000000000000000000000000000000000000008152600401610b439061394e565b60405180910390fd5b610b57838383611ac9565b505050565b60606000600860008473ffffffffffffffffffffffffffffffffffffffff1673ffffffffffffffffffffffffffffffffffffffff168152602001908152602001600020805480602002602001604051908101604052809291908181526020018280548015610be957602002820191906000526020600020905b815481526020019060010190808311610bd5575b505050505090506000815167ffffffffffffffff811115610c33577f4e487b7100000000000000000000000000000000000000000000000000000000600052604160045260246000fd5b604051908082528060200260200182016040528015610c6c57816020015b610c596129f1565b815260200190600190039081610c515790505b50905060005b8251811015610e78576000838281518110610cb6577f4e487b7100000000000000000000000000000000000000000000000000000000600052603260045260246000fd5b60200260200101519050600960008281526020019081526020016000206040518060a0016040529081600082018054610cee90613e2e565b80601f0160208091040260200160405190810160405280929190818152602001828054610d1a90613e2e565b8015610d675780601f10610d3c57610100808354040283529160200191610d67565b820191906000526020600020905b815481529060010190602001808311610d4a57829003601f168201915b505050505081526020016001820154815260200160028201548152602001600382018054610d9490613e2e565b80601f0160208091040260200160405190810160405280929190818152602001828054610dc090613e2e565b8015610e0d5780601f10610de257610100808354040283529160200191610e0d565b820191906000526020600020905b815481529060010190602001808311610df057829003601f168201915b50505050508152602001600482015481525050838381518110610e59577f4e487b7100000000000000000000000000000000000000000000000000000000600052603260045260246000fd5b6020026020010181905250508080610e7090613e60565b915050610c72565b508092505050919050565b610e9e83838360405180602001604052806000815250611235565b505050565b610eac816119f3565b610eeb576040517f08c379a0000000000000000000000000000000000000000000000000000000008152600401610ee290613a0e565b60405180910390fd5b60006009600083815260200190815260200160002060040154905060008111610f49576040517f08c379a0000000000000000000000000000000000000000000000000000000008152600401610f4090613b6e565b60405180910390fd5b600062278d009050428183610f5e9190613d22565b11610f6d57610f6c83611dc3565b5b505050565b600080610f7e83611f11565b9050600073ffffffffffffffffffffffffffffffffffffffff168173ffffffffffffffffffffffffffffffffffffffff161415610ff0576040517f08c379a0000000000000000000000000000000000000000000000000000000008152600401610fe790613aee565b60405180910390fd5b80915050919050565b60008073ffffffffffffffffffffffffffffffffffffffff168273ffffffffffffffffffffffffffffffffffffffff16141561106a576040517f08c379a000000000000000000000000000000000000000000000000000000000815260040161106190613a6e565b60405180910390fd5b600360008373ffffffffffffffffffffffffffffffffffffffff1673ffffffffffffffffffffffffffffffffffffffff168152602001908152602001600020549050919050565b6110b9611f4e565b6110c36000611fcc565b565b6000600660009054906101000a900473ffffffffffffffffffffffffffffffffffffffff16905090565b6110f98183611a34565b611138576040517f08c379a000000000000000000000000000000000000000000000000000000000815260040161112f90613ace565b60405180910390fd5b611141826119f3565b611180576040517f08c379a000000000000000000000000000000000000000000000000000000000815260040161117790613b6e565b60405180910390fd5b61118982611dc3565b5050565b60606001805461119c90613e2e565b80601f01602080910402602001604051908101604052809291908181526020018280546111c890613e2e565b80156112155780601f106111ea57610100808354040283529160200191611215565b820191906000526020600020905b8154815290600101906020018083116111f857829003601f168201915b5050505050905090565b61123161122a611932565b8383612092565b5050565b611246611240611932565b83611a34565b611285576040517f08c379a000000000000000000000000000000000000000000000000000000000815260040161127c9061394e565b60405180910390fd5b611291848484846121ff565b50505050565b60606112a2826118e7565b60006112ac61225b565b905060008151116112cc57604051806020016040528060008152506112f7565b806112d684612272565b6040516020016112e7929190613842565b6040516020818303038152906040525b915050919050565b600073ffffffffffffffffffffffffffffffffffffffff168573ffffffffffffffffffffffffffffffffffffffff16141561136f576040517f08c379a000000000000000000000000000000000000000000000000000000000815260040161136690613b4e565b60405180910390fd5b8473ffffffffffffffffffffffffffffffffffffffff163373ffffffffffffffffffffffffffffffffffffffff1614156113de576040517f08c379a00000000000000000000000000000000000000000000000000000000081526004016113d59061396e565b60405180910390fd5b60006113ea6007612396565b90506113f686826123a4565b60006040518060a0016040528087815260200186815260200185815260200184815260200142815250905080600960008481526020019081526020016000206000820151816000019080519060200190611451929190612a3c565b5060208201518160010155604082015181600201556060820151816003019080519060200190611482929190612a3c565b5060808201518160040155905050600860008873ffffffffffffffffffffffffffffffffffffffff1673ffffffffffffffffffffffffffffffffffffffff16815260200190815260200160002082908060018154018082558091505060019003906000526020600020016000909190919091505561150060076125c2565b50505050505050565b606060006115176007612396565b67ffffffffffffffff811115611556577f4e487b7100000000000000000000000000000000000000000000000000000000600052604160045260246000fd5b60405190808252806020026020018201604052801561158f57816020015b61157c6129f1565b8152602001906001900390816115745790505b50905060005b61159f6007612396565b81101561175d57600960008281526020019081526020016000206040518060a00160405290816000820180546115d490613e2e565b80601f016020809104026020016040519081016040528092919081815260200182805461160090613e2e565b801561164d5780601f106116225761010080835404028352916020019161164d565b820191906000526020600020905b81548152906001019060200180831161163057829003601f168201915b50505050508152602001600182015481526020016002820154815260200160038201805461167a90613e2e565b80601f01602080910402602001604051908101604052809291908181526020018280546116a690613e2e565b80156116f35780601f106116c8576101008083540402835291602001916116f3565b820191906000526020600020905b8154815290600101906020018083116116d657829003601f168201915b5050505050815260200160048201548152505082828151811061173f577f4e487b7100000000000000000000000000000000000000000000000000000000600052603260045260246000fd5b6020026020010181905250808061175590613e60565b915050611595565b508091505090565b6000600560008473ffffffffffffffffffffffffffffffffffffffff1673ffffffffffffffffffffffffffffffffffffffff16815260200190815260200160002060008373ffffffffffffffffffffffffffffffffffffffff1673ffffffffffffffffffffffffffffffffffffffff16815260200190815260200160002060009054906101000a900460ff16905092915050565b611801611f4e565b600073ffffffffffffffffffffffffffffffffffffffff168173ffffffffffffffffffffffffffffffffffffffff161415611871576040517f08c379a0000000000000000000000000000000000000000000000000000000008152600401611868906139ae565b60405180910390fd5b61187a81611fcc565b50565b60007f01ffc9a7000000000000000000000000000000000000000000000000000000007bffffffffffffffffffffffffffffffffffffffffffffffffffffffff1916827bffffffffffffffffffffffffffffffffffffffffffffffffffffffff1916149050919050565b6118f0816119f3565b61192f576040517f08c379a000000000000000000000000000000000000000000000000000000000815260040161192690613aee565b60405180910390fd5b50565b600033905090565b816004600083815260200190815260200160002060006101000a81548173ffffffffffffffffffffffffffffffffffffffff021916908373ffffffffffffffffffffffffffffffffffffffff160217905550808273ffffffffffffffffffffffffffffffffffffffff166119ad83610f72565b73ffffffffffffffffffffffffffffffffffffffff167f8c5be1e5ebec7d5bd14f71427d1e84f3dd0314c0f7b2291e5b200ac8c7c3b92560405160405180910390a45050565b60008073ffffffffffffffffffffffffffffffffffffffff16611a1583611f11565b73ffffffffffffffffffffffffffffffffffffffff1614159050919050565b600080611a4083610f72565b90508073ffffffffffffffffffffffffffffffffffffffff168473ffffffffffffffffffffffffffffffffffffffff161480611a825750611a818185611765565b5b80611ac057508373ffffffffffffffffffffffffffffffffffffffff16611aa88461062f565b73ffffffffffffffffffffffffffffffffffffffff16145b91505092915050565b8273ffffffffffffffffffffffffffffffffffffffff16611ae982610f72565b73ffffffffffffffffffffffffffffffffffffffff1614611b3f576040517f08c379a0000000000000000000000000000000000000000000000000000000008152600401611b36906139ce565b60405180910390fd5b600073ffffffffffffffffffffffffffffffffffffffff168273ffffffffffffffffffffffffffffffffffffffff161415611baf576040517f08c379a0000000000000000000000000000000000000000000000000000000008152600401611ba690613a2e565b60405180910390fd5b611bbc83838360016125d8565b8273ffffffffffffffffffffffffffffffffffffffff16611bdc82610f72565b73ffffffffffffffffffffffffffffffffffffffff1614611c32576040517f08c379a0000000000000000000000000000000000000000000000000000000008152600401611c29906139ce565b60405180910390fd5b6004600082815260200190815260200160002060006101000a81549073ffffffffffffffffffffffffffffffffffffffff02191690556001600360008573ffffffffffffffffffffffffffffffffffffffff1673ffffffffffffffffffffffffffffffffffffffff168152602001908152602001600020600082825403925050819055506001600360008473ffffffffffffffffffffffffffffffffffffffff1673ffffffffffffffffffffffffffffffffffffffff16815260200190815260200160002060008282540192505081905550816002600083815260200190815260200160002060006101000a81548173ffffffffffffffffffffffffffffffffffffffff021916908373ffffffffffffffffffffffffffffffffffffffff160217905550808273ffffffffffffffffffffffffffffffffffffffff168473ffffffffffffffffffffffffffffffffffffffff167fddf252ad1be2c89b69c2b068fc378daa952ba7f163c4a11628f55a4df523b3ef60405160405180910390a4611dbe83838360016125de565b505050565b6000611dce82610f72565b9050611dde8160008460016125d8565b611de782610f72565b90506004600083815260200190815260200160002060006101000a81549073ffffffffffffffffffffffffffffffffffffffff02191690556001600360008373ffffffffffffffffffffffffffffffffffffffff1673ffffffffffffffffffffffffffffffffffffffff168152602001908152602001600020600082825403925050819055506002600083815260200190815260200160002060006101000a81549073ffffffffffffffffffffffffffffffffffffffff021916905581600073ffffffffffffffffffffffffffffffffffffffff168273ffffffffffffffffffffffffffffffffffffffff167fddf252ad1be2c89b69c2b068fc378daa952ba7f163c4a11628f55a4df523b3ef60405160405180910390a4611f0d8160008460016125de565b5050565b60006002600083815260200190815260200160002060009054906101000a900473ffffffffffffffffffffffffffffffffffffffff169050919050565b611f56611932565b73ffffffffffffffffffffffffffffffffffffffff16611f746110c5565b73ffffffffffffffffffffffffffffffffffffffff1614611fca576040517f08c379a0000000000000000000000000000000000000000000000000000000008152600401611fc190613aae565b60405180910390fd5b565b6000600660009054906101000a900473ffffffffffffffffffffffffffffffffffffffff16905081600660006101000a81548173ffffffffffffffffffffffffffffffffffffffff021916908373ffffffffffffffffffffffffffffffffffffffff1602179055508173ffffffffffffffffffffffffffffffffffffffff168173ffffffffffffffffffffffffffffffffffffffff167f8be0079c531659141344cd1fd0a4f28419497f9722a3daafe3b4186f6b6457e060405160405180910390a35050565b8173ffffffffffffffffffffffffffffffffffffffff168373ffffffffffffffffffffffffffffffffffffffff161415612101576040517f08c379a00000000000000000000000000000000000000000000000000000000081526004016120f890613a4e565b60405180910390fd5b80600560008573ffffffffffffffffffffffffffffffffffffffff1673ffffffffffffffffffffffffffffffffffffffff16815260200190815260200160002060008473ffffffffffffffffffffffffffffffffffffffff1673ffffffffffffffffffffffffffffffffffffffff16815260200190815260200160002060006101000a81548160ff0219169083151502179055508173ffffffffffffffffffffffffffffffffffffffff168373ffffffffffffffffffffffffffffffffffffffff167f17307eab39ab6107e8899845ad3d59bd9653f200f220920489ca2b5937696c31836040516121f29190613911565b60405180910390a3505050565b61220a848484611ac9565b612216848484846125e4565b612255576040517f08c379a000000000000000000000000000000000000000000000000000000000815260040161224c9061398e565b60405180910390fd5b50505050565b606060405180602001604052806000815250905090565b6060600060016122818461277b565b01905060008167ffffffffffffffff8111156122c6577f4e487b7100000000000000000000000000000000000000000000000000000000600052604160045260246000fd5b6040519080825280601f01601f1916602001820160405280156122f85781602001600182028036833780820191505090505b509050600082602001820190505b60011561238b578080600190039150507f3031323334353637383961626364656600000000000000000000000000000000600a86061a8153600a8581612375577f4e487b7100000000000000000000000000000000000000000000000000000000600052601260045260246000fd5b04945060008514156123865761238b565b612306565b819350505050919050565b600081600001549050919050565b600073ffffffffffffffffffffffffffffffffffffffff168273ffffffffffffffffffffffffffffffffffffffff161415612414576040517f08c379a000000000000000000000000000000000000000000000000000000000815260040161240b90613a8e565b60405180910390fd5b61241d816119f3565b1561245d576040517f08c379a0000000000000000000000000000000000000000000000000000000008152600401612454906139ee565b60405180910390fd5b61246b6000838360016125d8565b612474816119f3565b156124b4576040517f08c379a00000000000000000000000000000000000000000000000000000000081526004016124ab906139ee565b60405180910390fd5b6001600360008473ffffffffffffffffffffffffffffffffffffffff1673ffffffffffffffffffffffffffffffffffffffff16815260200190815260200160002060008282540192505081905550816002600083815260200190815260200160002060006101000a81548173ffffffffffffffffffffffffffffffffffffffff021916908373ffffffffffffffffffffffffffffffffffffffff160217905550808273ffffffffffffffffffffffffffffffffffffffff16600073ffffffffffffffffffffffffffffffffffffffff167fddf252ad1be2c89b69c2b068fc378daa952ba7f163c4a11628f55a4df523b3ef60405160405180910390a46125be6000838360016125de565b5050565b6001816000016000828254019250508190555050565b50505050565b50505050565b60006126058473ffffffffffffffffffffffffffffffffffffffff166129b2565b1561276e578373ffffffffffffffffffffffffffffffffffffffff1663150b7a0261262e611932565b8786866040518563ffffffff1660e01b81526004016126509493929190613881565b602060405180830381600087803b15801561266a57600080fd5b505af192505050801561269b57506040513d601f19601f820116820180604052508101906126989190612e8f565b60015b61271e573d80600081146126cb576040519150601f19603f3d011682016040523d82523d6000602084013e6126d0565b606091505b50600081511415612716576040517f08c379a000000000000000000000000000000000000000000000000000000000815260040161270d9061398e565b60405180910390fd5b805181602001fd5b63150b7a0260e01b7bffffffffffffffffffffffffffffffffffffffffffffffffffffffff1916817bffffffffffffffffffffffffffffffffffffffffffffffffffffffff191614915050612773565b600190505b949350505050565b600080600090507a184f03e93ff9f4daa797ed6e38ed64bf6a1f01000000000000000083106127ff577a184f03e93ff9f4daa797ed6e38ed64bf6a1f01000000000000000083816127f5577f4e487b7100000000000000000000000000000000000000000000000000000000600052601260045260246000fd5b0492506040810190505b6d04ee2d6d415b85acef81000000008310612862576d04ee2d6d415b85acef81000000008381612858577f4e487b7100000000000000000000000000000000000000000000000000000000600052601260045260246000fd5b0492506020810190505b662386f26fc1000083106128b757662386f26fc1000083816128ad577f4e487b7100000000000000000000000000000000000000000000000000000000600052601260045260246000fd5b0492506010810190505b6305f5e1008310612906576305f5e10083816128fc577f4e487b7100000000000000000000000000000000000000000000000000000000600052601260045260246000fd5b0492506008810190505b6127108310612951576127108381612947577f4e487b7100000000000000000000000000000000000000000000000000000000600052601260045260246000fd5b0492506004810190505b6064831061299a5760648381612990577f4e487b7100000000000000000000000000000000000000000000000000000000600052601260045260246000fd5b0492506002810190505b600a83106129a9576001810190505b80915050919050565b6000808273ffffffffffffffffffffffffffffffffffffffff16803b806020016040519081016040528181526000908060200190933c51119050919050565b6040518060a0016040528060608152602001600081526020016000815260200160608152602001600081525090565b6040518060400160405280600081526020016000151581525090565b828054612a4890613e2e565b90600052602060002090601f016020900481019282612a6a5760008555612ab1565b82601f10612a8357805160ff1916838001178555612ab1565b82800160010185558215612ab1579182015b82811115612ab0578251825591602001919060010190612a95565b5b509050612abe9190612ac2565b5090565b5b80821115612adb576000816000905550600101612ac3565b5090565b6000612af2612aed84613bfc565b613bcb565b905082815260208101848484011115612b0a57600080fd5b612b15848285613dec565b509392505050565b6000612b30612b2b84613c2c565b613bcb565b905082815260208101848484011115612b4857600080fd5b612b53848285613dec565b509392505050565b600081359050612b6a81613f47565b92915050565b600081359050612b7f81613f5e565b92915050565b600081359050612b9481613f75565b92915050565b600081519050612ba981613f75565b92915050565b600082601f830112612bc057600080fd5b8135612bd0848260208601612adf565b91505092915050565b600082601f830112612bea57600080fd5b8135612bfa848260208601612b1d565b91505092915050565b600081359050612c1281613f8c565b92915050565b600060208284031215612c2a57600080fd5b6000612c3884828501612b5b565b91505092915050565b60008060408385031215612c5457600080fd5b6000612c6285828601612b5b565b9250506020612c7385828601612b5b565b9150509250929050565b600080600060608486031215612c9257600080fd5b6000612ca086828701612b5b565b9350506020612cb186828701612b5b565b9250506040612cc286828701612c03565b9150509250925092565b60008060008060808587031215612ce257600080fd5b6000612cf087828801612b5b565b9450506020612d0187828801612b5b565b9350506040612d1287828801612c03565b925050606085013567ffffffffffffffff811115612d2f57600080fd5b612d3b87828801612baf565b91505092959194509250565b60008060408385031215612d5a57600080fd5b6000612d6885828601612b5b565b9250506020612d7985828601612b70565b9150509250929050565b600080600080600060a08688031215612d9b57600080fd5b6000612da988828901612b5b565b955050602086013567ffffffffffffffff811115612dc657600080fd5b612dd288828901612bd9565b9450506040612de388828901612c03565b9350506060612df488828901612c03565b925050608086013567ffffffffffffffff811115612e1157600080fd5b612e1d88828901612bd9565b9150509295509295909350565b60008060408385031215612e3d57600080fd5b6000612e4b85828601612b5b565b9250506020612e5c85828601612c03565b9150509250929050565b600060208284031215612e7857600080fd5b6000612e8684828501612b85565b91505092915050565b600060208284031215612ea157600080fd5b6000612eaf84828501612b9a565b91505092915050565b600060208284031215612eca57600080fd5b6000612ed884828501612c03565b91505092915050565b60008060408385031215612ef457600080fd5b6000612f0285828601612c03565b9250506020612f1385828601612b5b565b9150509250929050565b6000612f2983836136fb565b905092915050565b6000612f3d83836137f5565b60408301905092915050565b612f5281613d78565b82525050565b6000612f6382613c7c565b612f6d8185613cc2565b935083602082028501612f7f85613c5c565b8060005b85811015612fbb5784840389528151612f9c8582612f1d565b9450612fa783613ca8565b925060208a01995050600181019050612f83565b50829750879550505050505092915050565b6000612fd882613c87565b612fe28185613cd3565b9350612fed83613c6c565b8060005b8381101561301e5781516130058882612f31565b975061301083613cb5565b925050600181019050612ff1565b5085935050505092915050565b61303481613d8a565b82525050565b61304381613d8a565b82525050565b600061305482613c92565b61305e8185613ce4565b935061306e818560208601613dfb565b61307781613f36565b840191505092915050565b600061308d82613c9d565b6130978185613cf5565b93506130a7818560208601613dfb565b6130b081613f36565b840191505092915050565b60006130c682613c9d565b6130d08185613d06565b93506130e0818560208601613dfb565b6130e981613f36565b840191505092915050565b60006130ff82613c9d565b6131098185613d17565b9350613119818560208601613dfb565b80840191505092915050565b6000613132602d83613d06565b91507f4552433732313a2063616c6c6572206973206e6f7420746f6b656e206f776e6560008301527f72206f7220617070726f766564000000000000000000000000000000000000006020830152604082019050919050565b6000613198602783613d06565b91507f57616c6c65742063616e6e6f74206265207468652073616d652061732074686560008301527f2073656e646572000000000000000000000000000000000000000000000000006020830152604082019050919050565b60006131fe603283613d06565b91507f4552433732313a207472616e7366657220746f206e6f6e20455243373231526560008301527f63656976657220696d706c656d656e74657200000000000000000000000000006020830152604082019050919050565b6000613264602683613d06565b91507f4f776e61626c653a206e6577206f776e657220697320746865207a65726f206160008301527f64647265737300000000000000000000000000000000000000000000000000006020830152604082019050919050565b60006132ca602583613d06565b91507f4552433732313a207472616e736665722066726f6d20696e636f72726563742060008301527f6f776e65720000000000000000000000000000000000000000000000000000006020830152604082019050919050565b6000613330601c83613d06565b91507f4552433732313a20746f6b656e20616c7265616479206d696e746564000000006000830152602082019050919050565b6000613370601183613d06565b91507f4e465420646f65736e27742065786973740000000000000000000000000000006000830152602082019050919050565b60006133b0602483613d06565b91507f4552433732313a207472616e7366657220746f20746865207a65726f2061646460008301527f72657373000000000000000000000000000000000000000000000000000000006020830152604082019050919050565b6000613416601983613d06565b91507f4552433732313a20617070726f766520746f2063616c6c6572000000000000006000830152602082019050919050565b6000613456602983613d06565b91507f4552433732313a2061646472657373207a65726f206973206e6f74206120766160008301527f6c6964206f776e657200000000000000000000000000000000000000000000006020830152604082019050919050565b60006134bc602083613d06565b91507f4552433732313a206d696e7420746f20746865207a65726f20616464726573736000830152602082019050919050565b60006134fc602083613d06565b91507f4f776e61626c653a2063616c6c6572206973206e6f7420746865206f776e65726000830152602082019050919050565b600061353c601583613d06565b91507f4e6f7420617070726f766564206f72206f776e657200000000000000000000006000830152602082019050919050565b600061357c601883613d06565b91507f4552433732313a20696e76616c696420746f6b656e20494400000000000000006000830152602082019050919050565b60006135bc602183613d06565b91507f4552433732313a20617070726f76616c20746f2063757272656e74206f776e6560008301527f72000000000000000000000000000000000000000000000000000000000000006020830152604082019050919050565b6000613622603d83613d06565b91507f4552433732313a20617070726f76652063616c6c6572206973206e6f7420746f60008301527f6b656e206f776e6572206f7220617070726f76656420666f7220616c6c0000006020830152604082019050919050565b6000613688601683613d06565b91507f496e76616c69642077616c6c65742061646472657373000000000000000000006000830152602082019050919050565b60006136c8601383613d06565b91507f4e465420616c72656164792065787069726564000000000000000000000000006000830152602082019050919050565b600060a08301600083015184820360008601526137188282613082565b915050602083015161372d6020860182613824565b5060408301516137406040860182613824565b50606083015184820360608601526137588282613082565b915050608083015161376d6080860182613824565b508091505092915050565b600060a08301600083015184820360008601526137958282613082565b91505060208301516137aa6020860182613824565b5060408301516137bd6040860182613824565b50606083015184820360608601526137d58282613082565b91505060808301516137ea6080860182613824565b508091505092915050565b60408201600082015161380b6000850182613824565b50602082015161381e602085018261302b565b50505050565b61382d81613de2565b82525050565b61383c81613de2565b82525050565b600061384e82856130f4565b915061385a82846130f4565b91508190509392505050565b600060208201905061387b6000830184612f49565b92915050565b60006080820190506138966000830187612f49565b6138a36020830186612f49565b6138b06040830185613833565b81810360608301526138c28184613049565b905095945050505050565b600060208201905081810360008301526138e78184612f58565b905092915050565b600060208201905081810360008301526139098184612fcd565b905092915050565b6000602082019050613926600083018461303a565b92915050565b6000602082019050818103600083015261394681846130bb565b905092915050565b6000602082019050818103600083015261396781613125565b9050919050565b600060208201905081810360008301526139878161318b565b9050919050565b600060208201905081810360008301526139a7816131f1565b9050919050565b600060208201905081810360008301526139c781613257565b9050919050565b600060208201905081810360008301526139e7816132bd565b9050919050565b60006020820190508181036000830152613a0781613323565b9050919050565b60006020820190508181036000830152613a2781613363565b9050919050565b60006020820190508181036000830152613a47816133a3565b9050919050565b60006020820190508181036000830152613a6781613409565b9050919050565b60006020820190508181036000830152613a8781613449565b9050919050565b60006020820190508181036000830152613aa7816134af565b9050919050565b60006020820190508181036000830152613ac7816134ef565b9050919050565b60006020820190508181036000830152613ae78161352f565b9050919050565b60006020820190508181036000830152613b078161356f565b9050919050565b60006020820190508181036000830152613b27816135af565b9050919050565b60006020820190508181036000830152613b4781613615565b9050919050565b60006020820190508181036000830152613b678161367b565b9050919050565b60006020820190508181036000830152613b87816136bb565b9050919050565b60006020820190508181036000830152613ba88184613778565b905092915050565b6000602082019050613bc56000830184613833565b92915050565b6000604051905081810181811067ffffffffffffffff82111715613bf257613bf1613f07565b5b8060405250919050565b600067ffffffffffffffff821115613c1757613c16613f07565b5b601f19601f8301169050602081019050919050565b600067ffffffffffffffff821115613c4757613c46613f07565b5b601f19601f8301169050602081019050919050565b6000819050602082019050919050565b6000819050602082019050919050565b600081519050919050565b600081519050919050565b600081519050919050565b600081519050919050565b6000602082019050919050565b6000602082019050919050565b600082825260208201905092915050565b600082825260208201905092915050565b600082825260208201905092915050565b600082825260208201905092915050565b600082825260208201905092915050565b600081905092915050565b6000613d2d82613de2565b9150613d3883613de2565b9250827fffffffffffffffffffffffffffffffffffffffffffffffffffffffffffffffff03821115613d6d57613d6c613ea9565b5b828201905092915050565b6000613d8382613dc2565b9050919050565b60008115159050919050565b60007fffffffff0000000000000000000000000000000000000000000000000000000082169050919050565b600073ffffffffffffffffffffffffffffffffffffffff82169050919050565b6000819050919050565b82818337600083830152505050565b60005b83811015613e19578082015181840152602081019050613dfe565b83811115613e28576000848401525b50505050565b60006002820490506001821680613e4657607f821691505b60208210811415613e5a57613e59613ed8565b5b50919050565b6000613e6b82613de2565b91507fffffffffffffffffffffffffffffffffffffffffffffffffffffffffffffffff821415613e9e57613e9d613ea9565b5b600182019050919050565b7f4e487b7100000000000000000000000000000000000000000000000000000000600052601160045260246000fd5b7f4e487b7100000000000000000000000000000000000000000000000000000000600052602260045260246000fd5b7f4e487b7100000000000000000000000000000000000000000000000000000000600052604160045260246000fd5b6000601f19601f8301169050919050565b613f5081613d78565b8114613f5b57600080fd5b50565b613f6781613d8a565b8114613f7257600080fd5b50565b613f7e81613d96565b8114613f8957600080fd5b50565b613f9581613de2565b8114613fa057600080fd5b5056fea264697066735822122037c0a6f212b4129207b6e730015c78d8b80692597bfd86acfe4c29f31368a80064736f6c63430008000033",
  "immutableReferences": {},
  "source": "// SPDX-License-Identifier: MIT\r\npragma solidity ^0.8.0;\r\n\r\nimport \"@openzeppelin/contracts/token/ERC721/ERC721.sol\";\r\nimport \"@openzeppelin/contracts/access/Ownable.sol\";\r\nimport \"@openzeppelin/contracts/utils/Counters.sol\";\r\n\r\ncontract CustomNFT is ERC721, Ownable {\r\n    using Counters for Counters.Counter;\r\n\r\n    struct NFTData {\r\n        string imageUrl;\r\n        uint256 nftType;\r\n        uint256 value;\r\n        string sellerId;\r\n        // uint256 typo;\r\n        uint256 expiryTimestamp;\r\n    }\r\n   \r\n    Counters.Counter private _tokenCounter;\r\n\r\n    mapping(address => uint256[]) private _walletNFTs;\r\n    mapping(uint256 => NFTData) private _nftData;\r\n    constructor(string memory _name, string memory _symbol) ERC721(_name, _symbol) {}\r\n event LogMessage(string message);\r\n\r\n\r\nfunction issueNFT(\r\n    address wallet,\r\n    string memory imageUrl,\r\n    uint256 nftType,\r\n    uint256 value,\r\n    string memory sellerId\r\n) external {\r\n    require(wallet != address(0), \"Invalid wallet address\");\r\n    require(msg.sender != wallet, \"Wallet cannot be the same as the sender\");\r\n\r\n    uint256 tokenId = _tokenCounter.current();\r\n    _mint(wallet, tokenId);\r\n\r\n    NFTData memory nft = NFTData({\r\n        imageUrl: imageUrl,\r\n        nftType: nftType,\r\n        value: value,\r\n        sellerId: sellerId,\r\n        expiryTimestamp: block.timestamp\r\n    });\r\n    _nftData[tokenId] = nft;\r\n    _walletNFTs[wallet].push(tokenId);\r\n\r\n    _tokenCounter.increment();\r\n    \r\n}\r\n\r\n  function getNFTsByWallet(address wallet) external view returns (NFTData[] memory) {\r\n    uint256[] memory tokenIds = _walletNFTs[wallet];\r\n    NFTData[] memory nfts = new NFTData[](tokenIds.length);\r\n\r\n    for (uint256 i = 0; i < tokenIds.length; i++) {\r\n        uint256 tokenId = tokenIds[i];\r\n        // require(_exists(tokenId), \"NFT does not exist\"); \r\n        \r\n        nfts[i] = _nftData[tokenId];\r\n    }\r\n\r\n    return nfts;\r\n}\r\n  function getNFTsByWalletExp(address wallet) external view returns (Tuple[] memory) {\r\n    uint256[] memory tokenIds = _walletNFTs[wallet];\r\n    Tuple[] memory result = new Tuple[](tokenIds.length);\r\n\r\n    for (uint256 i = 0; i < tokenIds.length; i++) {\r\n        uint256 tokenId = tokenIds[i];\r\n        bool isExpired = !_exists(tokenId);\r\n        result[i] = Tuple(tokenId, isExpired);\r\n    }\r\n\r\n    return result;\r\n}\r\n\r\nstruct Tuple {\r\n    uint256 tokenId;\r\n    bool isExpired;\r\n}\r\n\r\n    function getNFTData(uint256 tokenId) external view returns (NFTData memory) {\r\n        return _nftData[tokenId];\r\n    }\r\n\r\n    function expireNFT(uint256 tokenId, address wallet) external {\r\n        require(_isApprovedOrOwner(wallet, tokenId), \"Not approved or owner\");\r\n        require(_exists(tokenId), \"NFT already expired\");\r\n\r\n        _burn(tokenId);\r\n    }\r\n\r\nfunction autoExpireNFT(uint256 tokenId) external {\r\n    require(_exists(tokenId), \"NFT doesn't exist\");\r\n\r\n    uint256 expiryTimestamp = _nftData[tokenId].expiryTimestamp;\r\n\r\n    require(expiryTimestamp > 0, \"NFT already expired\"); // Ensure the expiry timestamp is set\r\n\r\n    uint256 thirtyDaysInSeconds = 30 days;\r\n    if (expiryTimestamp + thirtyDaysInSeconds <= block.timestamp) {\r\n        _burn(tokenId);\r\n    }\r\n}\r\n\r\n   function getAllMintedNFTs() external view returns (NFTData[] memory) {\r\n        NFTData[] memory allNFTs = new NFTData[](_tokenCounter.current());\r\n\r\n        for (uint256 i = 0; i < _tokenCounter.current(); i++) {\r\n            allNFTs[i] = _nftData[i];\r\n        }\r\n\r\n        return allNFTs;\r\n    }\r\n\r\n   \r\n\r\n    function _isExpired(uint256 tokenId) external view returns (bool) {\r\n        return !_exists(tokenId);\r\n    }\r\n}",
  "sourcePath": "D:\\GRID\\Loyalty_Reward_Chains\\src\\contracts\\NFT.sol",
  "compiler": {
    "name": "solc",
    "version": "0.8.0+commit.c7dfd78e.Emscripten.clang"
  },
  "schemaVersion": "3.4.13",
  "updatedAt": "2023-08-20T19:21:13.553Z",
  "networkType": "ethereum",
  "devdoc": {
    "kind": "dev",
    "methods": {
      "approve(address,uint256)": {
        "details": "See {IERC721-approve}."
      },
      "balanceOf(address)": {
        "details": "See {IERC721-balanceOf}."
      },
      "getApproved(uint256)": {
        "details": "See {IERC721-getApproved}."
      },
      "isApprovedForAll(address,address)": {
        "details": "See {IERC721-isApprovedForAll}."
      },
      "name()": {
        "details": "See {IERC721Metadata-name}."
      },
      "owner()": {
        "details": "Returns the address of the current owner."
      },
      "ownerOf(uint256)": {
        "details": "See {IERC721-ownerOf}."
      },
      "renounceOwnership()": {
        "details": "Leaves the contract without owner. It will not be possible to call `onlyOwner` functions. Can only be called by the current owner. NOTE: Renouncing ownership will leave the contract without an owner, thereby disabling any functionality that is only available to the owner."
      },
      "safeTransferFrom(address,address,uint256)": {
        "details": "See {IERC721-safeTransferFrom}."
      },
      "safeTransferFrom(address,address,uint256,bytes)": {
        "details": "See {IERC721-safeTransferFrom}."
      },
      "setApprovalForAll(address,bool)": {
        "details": "See {IERC721-setApprovalForAll}."
      },
      "supportsInterface(bytes4)": {
        "details": "See {IERC165-supportsInterface}."
      },
      "symbol()": {
        "details": "See {IERC721Metadata-symbol}."
      },
      "tokenURI(uint256)": {
        "details": "See {IERC721Metadata-tokenURI}."
      },
      "transferFrom(address,address,uint256)": {
        "details": "See {IERC721-transferFrom}."
      },
      "transferOwnership(address)": {
        "details": "Transfers ownership of the contract to a new account (`newOwner`). Can only be called by the current owner."
      }
    },
    "version": 1
  },
  "userdoc": {
    "kind": "user",
    "methods": {},
    "version": 1
  }
}